:020000040800F2
:100000000028002055120008E50F0008ED0F000839
:10001000F50F0008FD0F00080510000800000000A3
:100020000000000000000000000000000D100008AB
:100030001910000800000000251000083110000809
:100040009D1200089D1200089D1200089D120008D4
:100050009D1200089D1200089D1200089D120008C4
:100060009D1200089D1200089D1200089D120008B4
:100070009D1200089D1200089D1200089D120008A4
:100080009D1200089D1200089D1200089D12000894
:100090009D1200089D1200089D1200089D12000884
:1000A0009D1200089D1200089D1200089D12000874
:1000B0003D1000089D120008000000009D1200087D
:1000C0009D12000800000000000000009D120008C2
:1000D000000000009D1200089D12000800000000B2
:1000E0009D1200089D1200089D12000800000000EB
:1000F0000000000000000000000000000000000000
:0C01000000000000000000005FF808F1A3
:10010C0010B5054C237833B9044B13B10448AFF345
:10011C0000800123237010BD84000020000000002B
:10012C00D428000808B5034B1BB103490348AFF3AF
:10013C00008008BD0000000088000020D4280008C2
:10014C0080B500AFA64B1A78A64B1B789A420AD002
:10015C00A44B1A78A24B1A70A24B1B78012B02D11C
:10016C00A14B00221A709F4B1B78013B032B00F212
:10017C009A8101A252F823F095010008A10300080E
:10018C001D04000867040008974B1B78DBB2042B96
:10019C0000F2888101A252F823F000BFBD010008D3
:1001AC00DD01000849020008B90200082303000819
:1001BC008D4B01221A708D4B1B889BB2184600F098
:1001CC0061FF8B4B1B889BB2184600F079FFE0E077
:1001DC0000220121874801F060FB012202218548A1
:1001EC0001F05BFB01220421824801F056FB012245
:1001FC000821804801F051FB002210217D4801F0BC
:10020C004CFB012220217B4801F047FB7A4B1B88D9
:10021C009BB21A46794B1B689A4205DA784B1B78CD
:10022C00DBB2012B40F0B0806F4B02221A70724B84
:10023C001B889BB2184600F043FFA5E00022012169
:10024C006C4801F02AFB012202216A4801F025FBCF
:10025C0001220421674801F020FB01220821654896
:10026C0001F01BFB01221021624801F016FB002259
:10027C002021604801F011FB624B1B78DBB2012B93
:10028C0004D05F4B1B78DBB2012B7FD1564B032282
:10029C001A70574B1B889BB2184600F0F3FE534B59
:1002AC001B889BB2184600F00BFF6FE00122012166
:1002BC00504801F0F2FA002202214E4801F0EDFA0A
:1002CC00012204214B4801F0E8FA00220821494898
:1002DC0001F0E3FA01221021464801F0DEFA012276
:1002EC002021444801F0D9FA464B1B78DBB2012B94
:1002FC0007D0414B1B889BB21A46434B1B689A4252
:10030C0046DB394B04221A703B4B1B889BB21846B8
:10031C0000F0B8FE3CE001220121364801F0BDFAA4
:10032C0001220221334801F0B8FA0022042131489D
:10033C0001F0B3FA002208212E4801F0AEFA012296
:10034C0010212C4801F0A9FA01222021294801F0A2
:10035C00A4FA2C4B1B78DBB2012B05D0284B1B7855
:10036C00DBB2012B40F09E801F4B01221A701F4BF9
:10037C001B889BB2184600F085FE1D4B1B889BB258
:10038C00184600F09DFE8DE000BF8BE000BF89E0B9
:10039C0000BF87E01D4B1B78DBB2012B0AD101217A
:1003AC00144801F092FA0821124801F08EFA6420E8
:1003BC0000F04EFE012202210E4801F06EFA0122DD
:1003CC0004210C4801F069FA01221021094801F0BE
:1003DC0064FA01222021074801F05FFA63E000BFB4
:1003EC00000000200E000020A000002002000020D1
:1003FC0004000020000C0140060000201401002025
:10040C002A010020290100201801002028010020C9
:10041C00264B1B78DBB2012B0AD10421244801F0B6
:10042C0054FA2021224801F050FA642000F010FE0A
:10043C00012201211E4801F030FA012202211C4840
:10044C0001F02BFA01220821194801F026FA0122A9
:10045C001021174801F021FA25E0144B1B78DBB270
:10046C00012B0AD10221124801F02FFA1021104859
:10047C0001F02BFA642000F0EBFD012201210C4865
:10048C0001F00BFA01220421094801F006FA0122BD
:10049C000821074801F001FA01222021044801F04B
:1004AC00FCF900E000BF00BF80BD00BF28010020A8
:1004BC00000C014080B582B000AF0023FB7102E15B
:1004CC00FB79884AD35C022B00F09280022B00F35C
:1004DC00F780002B02D0012B72D0F1E0FB7918468B
:1004EC0000F09EF90346002B00F0E580FB797D4A75
:1004FC000121D154FB79002B06D17B4B1B780133A6
:10050C00DAB2794B1A70D6E0FB79012B40D1774BDC
:10051C001B88754B1B78042B28D0042B4FDC022B2B
:10052C0002D0032B11D04AE0714B1B889BB203F510
:10053C007A739AB26E4B1A806E4B1B889BB203F582
:10054C007A739AB26B4B1A8021E06B4B1B889BB26F
:10055C0003F57A739AB2684B1A80664B1B889BB270
:10056C0003F57A739AB2634B1A8010E0604B1B88C8
:10057C009BB203F57A739AB25D4B1A805D4B1B8864
:10058C009BB203F57A739AB25A4B1A8000BF16E0ED
:10059C00FB79022B40F08F80534B01221A70554B84
:1005AC001B889AB2514B1A80514B1B889AB2534BF1
:1005BC001A80514B1B889AB2514B1A807BE07AE01F
:1005CC00FB79184600F02CF90346002B04D1FB797B
:1005DC00444A0021D15470E0FB79184600F03AF9F6
:1005EC000346002B69D0FB793E4A0221D15464E0CA
:1005FC00FB79184600F014F90346002B04D1FB7963
:10060C00384A0021D1545AE0FB793E4AD35C012B85
:10061C0055D1FB79002B06D1334B1B780133DAB261
:10062C00314B1A7042E0FB79012B3FD12F4B1B88C9
:10063C002D4B1B78042B28D0042B37DC022B02D03B
:10064C00032B11D032E02A4B1B889BB203F57A7333
:10065C009AB2274B1A80274B1B889BB203F57A73EF
:10066C009AB2244B1A8021E0234B1B889BB203F5D2
:10067C007A739AB2204B1A801E4B1B889BB203F5DF
:10068C007A739AB21B4B1A8010E0194B1B889BB2E1
:10069C0003F57A739AB2164B1A80164B1B889BB2D1
:1006AC0003F57A739AB2134B1A8000BFFB79154A83
:1006BC000021D15403E000BF02E000BF00E000BF06
:1006CC00FB790133FB71FB79022B7FF6F9AE064BFC
:1006DC001B78052B02D1044B01221A7000BF08377E
:1006EC00BD4680BDA40000200E00002002000020AA
:1006FC000A000020080000200C000020040000204C
:10070C0006000020B400002090B583B000AF002399
:10071C00FB716BE0FA79FB793849895C384AD15422
:10072C00FB79384A32F81330FC791946364801F017
:10073C009DF803461A46314B1A55FB792F4AD25C69
:10074C00FB792F49CB5C9A424DD1FA79FB792B4935
:10075C00895C2E4AD154FB792C4AD35C002B30D1C6
:10076C00FB792B4A32F81330B3F57A7F0AD2FB7936
:10077C00274A32F81320FB790A3291B2244A22F824
:10078C00131030E0FB79234A0121D154FB79224A22
:10079C0032F81320FB790A3291B21F4A22F8131057
:1007AC00FB791D4A32F81330B3F5FA7F1BD3FB7972
:1007BC00194A002122F81310FB79184A0121D1544F
:1007CC0011E0FB79124A002122F81310FB79114A2F
:1007DC000021D154FB79104A002122F81310FB7927
:1007EC000E4A0021D154FB790133FB71FB79022BAA
:1007FC0090D900BF00BF0C37BD4690BD140000203F
:10080C00180000201C000020000C014010000020EB
:10081C00AC000020A800002024000020B400002020
:10082C0080B483B000AF0346FB71FB79022B01D976
:10083C00002307E0FB79064AD35C002B0CBF012395
:10084C000023DBB218460C37BD4680BC704700BF96
:10085C001000002080B483B000AF0346FB71FB791D
:10086C00022B01D9FF2307E0FB79064AD35C012B4D
:10087C000CBF01230023DBB218460C37BD4680BCED
:10088C00704700BFA800002080B483B000AF184BA5
:10089C001A78184B1B789A4224D0154B1B781A46A1
:1008AC00154B9B5CBB710023FB7114E0FB79134A65
:1008BC0032F813301946BA79FB79C3F1060342FAC0
:1008CC0003F31B0103F0100301FA03F20C4B1A6142
:1008DC00FB790133FB71FB79062BE7D9044B1A78B2
:1008EC00044B1A7000BF0C37BD4680BC704700BF6C
:1008FC000E000020C20000202C0000203800002038
:10090C000008014080B483B000AFA54B1B78002BCE
:10091C0002D0012B09D012E0A24B1B881B04A14A68
:10092C0052881A43A04B1A6109E09E4B1B881A4649
:10093C009C4B5B881B041A439B4B1A6100BF9B4B5F
:10094C001B78013B032B00F2A28101A252F823F089
:10095C006D090008790A0008130B0008010C000847
:10096C00934B1B68934A82FB03121213DB17D31AA7
:10097C00DAB2914B1A708E4B1A688E4B83FB0213B2
:10098C001913D317CB1A42F2107101FB03F3D31ACC
:10099C008A4A82FB03129211DB17D31ADAB2864B06
:1009AC005A70874B1B68834A82FB03121213DB17A6
:1009BC00D31ADAB2834B1A70814B1A687D4B83FBC6
:1009CC0002131913D317CB1A42F2107101FB03F364
:1009DC00D31A7A4A82FB03129211DB17D31ADAB2BA
:1009EC00784B5A706E4B1B781A46734B9B5C1A46AD
:1009FC00754B9A5C754B1A70694B1B781A46714B88
:100A0C009B5C1A46704B9A5C714B1A700023FB71FD
:100A1C0028E0FB796F4A32F813301A466B4B1B787F
:100A2C001946FB79C3F1060341FA03F31B0103F0EA
:100A3C0010039A40684B1A61FB79684A32F81330FC
:100A4C001A46624B1B781946FB79C3F1060341FA2F
:100A5C0003F31B0103F010039A40614B1A61FB79FD
:100A6C000133FB71FB79062BD3D910E15D4B1B884D
:100A7C009BB25D4AA2FB03235B0B9BB2DAB25B4BCE
:100A8C001A70584B1B889BB2574AA2FB0312520B8D
:100A9C0042F2107101FB02F29B1A9BB2474AA2FB75
:100AAC0003239B099BB2DAB2504B5A703C4B1B7818
:100ABC001A464E4B9B5C1A46434B9A5C434B1A703E
:100ACC000023BB711BE0BB79424A32F813301A4643
:100ADC003E4B1B781946BB79C3F1060341FA03F36D
:100AEC001B0103F010039A403B4B1A61BB793B4A44
:100AFC0032F813203A4B1A61BB790133BB71BB79C5
:100B0C00062BE0D9C3E03A4B1B889BB2364AA2FBBA
:100B1C0003235B0B9BB2DAB2344B1A70344B1B8839
:100B2C009BB2314AA2FB0312520B42F2107101FB31
:100B3C0002F29B1A9BB2214AA2FB03239B099BB294
:100B4C00DAB22A4B5A70164B1B781A46274B9B5C11
:100B5C001A461D4B9A5C1D4B1A7000237B711BE0CF
:100B6C007B791C4A32F813301A46184B1B781946FD
:100B7C007B79C3F1060341FA03F31B0103F0100365
:100B8C009A40154B1A617B79144A32F81320144B96
:100B9C001A617B7901337B717B79062BE0D976E086
:100BAC00C300002068000020001001400E0000204F
:100BBC0014010020AD8BDB68B8000020D34D62100F
:100BCC0018010020BC0000202C000020C4000020D4
:100BDC00C5000020480000200008014058000020FB
:100BEC00000C0140080000205917B7D1C0000020AC
:100BFC000C0000202F4B1B889BB22F4AA2FB032317
:100C0C005B0B9BB2DAB22D4B1A702A4B1B889BB232
:100C1C00294AA2FB0312520B42F2107101FB02F2A1
:100C2C009B1A9BB2264AA2FB03239B099BB2DAB206
:100C3C00224B5A70234B1B781A46204B9B5C1A464E
:100C4C00214B9A5C214B1A7000233B711BE03B79C2
:100C5C001F4A32F813301A461C4B1B7819463B7945
:100C6C00C3F1060341FA03F31B0103F010039A408E
:100C7C00184B1A613B79184A32F81320174B1A613A
:100C8C003B7901333B713B79062BE0D900BF0D4B0F
:100C9C001B780133DAB20B4B1A700A4B1B78012B01
:100CAC0002D9084B00221A7000BF0C37BD4680BC1D
:100CBC00704700BF0A0000205917B7D1C0000020B0
:100CCC00D34D6210C30000202C000020C400002073
:100CDC00480000200008014058000020000C014092
:100CEC0080B500AF00F0D6FA00F018F800F09EF8CE
:100CFC0000F050F8074801F02FFA074B1B78DBB2D5
:100D0C00012BFAD1FFF7D6FBFFF7BEFD642000F0F4
:100D1C00F5F9F2E7C80000202B01002080B590B057
:100D2C0000AF07F1180328220021184601F0A0FD9E
:100D3C003B1D00221A605A609A60DA601A61022325
:100D4C00BB610123BB621023FB6200237B6307F1B1
:100D5C001803184600F0D2FD0346002B01D000F01A
:100D6C00DFF80F237B600023BB600023FB600023B4
:100D7C003B6100237B613B1D0021184601F040F8CC
:100D8C000346002B01D000F0CBF800BF4037BD4626
:100D9C0080BD000080B586B000AF07F108030022CB
:100DAC001A605A609A60DA603B4600221A605A60F8
:100DBC001D4B4FF080421A601B4B41F63F725A603C
:100DCC00194B00229A60184B0922DA60164B00224C
:100DDC001A61154B00229A61134801F06DF9034614
:100DEC00002B01D000F09CF84FF48053BB6007F14E
:100DFC00080319460C4801F0EBFA0346002B01D00E
:100E0C0000F08EF800233B6000237B603B461946C4
:100E1C00054801F0C3FC0346002B01D000F080F81C
:100E2C0000BF1837BD4680BDC800002080B588B013
:100E3C0000AF07F1100300221A605A609A60DA6062
:100E4C00334B9B69324A43F010039361304B9B69DF
:100E5C0003F01003FB60FB682D4B9B692C4A43F09D
:100E6C00040393612A4B9B6903F00403BB60BB68CA
:100E7C00274B9B69264A43F008039361244B9B69DB
:100E8C0003F008037B607B6800224FF4C0412148CB
:100E9C0000F003FD012247F6FF711F4800F0FDFC36
:100EAC0001224FF6FF711D4800F0F7FC4FF4C043D0
:100EBC003B6101237B610023BB610223FB6107F1D2
:100ECC0010031946134800F055FB47F6FF733B61BE
:100EDC0001237B610023BB610223FB6107F110033B
:100EEC0019460D4800F046FB4FF6FF733B6101239A
:100EFC007B610023BB610223FB6107F110031946E0
:100F0C00064800F037FB00BF2037BD4680BD00BF50
:100F1C00001002400010014000080140000C01408C
:100F2C0080B400AF72B600BF00BFFDE780B485B0DF
:100F3C0000AF154B9B69144A43F001039361124BAC
:100F4C009B6903F00103BB60BB680F4BDB690E4A66
:100F5C0043F08053D3610C4BDB6903F080537B600F
:100F6C007B680A4B5B68FB60FB6823F0E063FB600B
:100F7C00FB6843F08063FB60044AFB68536000BF6E
:100F8C001437BD4680BC7047001002400000014081
:100F9C0080B584B000AF78607B681B68B3F1804F7C
:100FAC0013D10C4BDB690B4A43F00103D361094BA2
:100FBC00DB6903F00103FB60FB68002200211C20AD
:100FCC0000F0A1FA1C2000F0BAFA00BF1037BD46A1
:100FDC0080BD00BF0010024080B400AF00BFFDE731
:100FEC0080B400AF00BFFDE780B400AF00BFFDE7E9
:100FFC0080B400AF00BFFDE780B400AF00BFFDE7D9
:10100C0080B400AF00BFBD4680BC704780B400AF59
:10101C0000BFBD4680BC704780B400AF00BFBD466A
:10102C0080BC704780B500AF00F07AF900BF80BD7E
:10103C0080B500AF024801F0DBF800BF80BD00BFF7
:10104C00C800002080B400AF00BFBD4680BC704714
:10105C0080B483B000AF0346FB80074B00221A70AC
:10106C00FB88064A1360FB88054A136000BF0C37E7
:10107C00BD4680BC704700BF2801002070000020D6
:10108C001001002080B483B000AF7860084B0022C0
:10109C001A707B68074A13607B68074A1360074B1A
:1010AC004FF47A721A8000BF0C37BD4680BC704773
:1010BC0029010020200100201401002078000020CC
:1010CC0080B483B000AF7860084B00221A707B6844
:1010DC00074A13607B68074A1360074B4FF47A7218
:1010EC001A8000BF0C37BD4680BC70472A01002017
:1010FC0024010020180100207A00002080B483B065
:10110C0000AF0346FB80074B00221A70FB88064A8F
:10111C001360FB88054A136000BF0C37BD4680BCCA
:10112C00704700BF2B010020740000201C01002020
:10113C0080B500AF314B1B68002B04DD2F4B1B68B7
:10114C000A3B2E4A13602E4B1B68002B04DD2C4BE4
:10115C001B680A3B2A4A13602A4B1B68002B13DDC1
:10116C00294B1B880A3B9AB2274B1A80264B1B88AB
:10117C00002B09D1234B1B68A3F57A73214A13600A
:10118C00214B4FF47A721A80204B1B68002B13DD15
:10119C001F4B1B880A3B9AB21D4B1A801C4B1B8899
:1011AC00002B09D1194B1B68A3F57A73174A1360EE
:1011BC00174B4FF47A721A80104B1B68002B02DC11
:1011CC00144B01221A700F4B1B68002B02DC124BC4
:1011DC0001221A700D4B1B68002B02DC0F4B0122F5
:1011EC001A70074B1B68002B06DC0D4B01221A7082
:1011FC00FEF7A6FFFFF786FB00BF80BD10010020A5
:10120C001C0100201401002078000020180100208F
:10121C007A00002028010020290100202A0100204A
:10122C002B01002080B582B000AF78607B681B6812
:10123C00B3F1804F03D1FFF77BFFFFF765FA00BFD7
:10124C000837BD4680BD0000FFF7FCFE0B480C497B
:10125C000C4A002302E0D458C4500433C4188C4206
:10126C00F9D3094A094C002301E013600432A2426D
:10127C00FBD301F005FBFFF733FD704700000020A6
:10128C008400002018290008840000203001002070
:10129C00FEE7000080B500AF084B1B68074A43F01F
:1012AC0010031360032000F023F90F2000F008F85E
:1012BC00FFF73CFE0023184680BD00BF0020024013
:1012CC0080B582B000AF7860124B1A68124B1B7855
:1012DC0019464FF47A73B3FBF1F3B2FBF3F31846F0
:1012EC0000F03BF90346002B01D001230EE07B6894
:1012FC000F2B0AD8002279684FF0FF3000F003F969
:10130C00064A7B681360002300E001231846083767
:10131C00BD4680BD6C000020800000207C000020B9
:10132C0080B400AF054B1B781A46054B1B68134461
:10133C00034A136000BFBD4680BC7047800000208C
:10134C002C01002080B400AF024B1B681846BD4630
:10135C0080BC70472C01002080B485B000AF786051
:10136C007B6803F00703FB600C4BDB68BB60BA685F
:10137C004FF6FF031340BB60FB681A02BB681343B4
:10138C0043F0BF6343F40033BB60044ABB68D360D3
:10139C0000BF1437BD4680BC704700BF00ED00E0B5
:1013AC0080B400AF044BDB681B0A03F0070318463C
:1013BC00BD4680BC704700BF00ED00E080B483B038
:1013CC0000AF0346FB7197F90730002B0BDBFB7961
:1013DC0003F01F02064997F907305B09012000FA58
:1013EC0002F241F8232000BF0C37BD4680BC704789
:1013FC0000E100E080B483B000AF03463960FB71BC
:10140C0097F90730002B0ADB3B68DAB20C4997F9E5
:10141C0007301201D2B20B4483F800230AE03B6878
:10142C00DAB20849FB7903F00F03043B1201D2B284
:10143C000B441A7600BF0C37BD4680BC704700BF0A
:10144C0000E100E000ED00E080B489B000AFF8608E
:10145C00B9607A60FB6803F00703FB61FB69C3F1B9
:10146C000703042B28BF0423BB61FB690433062B41
:10147C0002D9FB69033B00E000237B614FF0FF3294
:10148C00BB6902FA03F3DA43BB681A407B699A40E2
:10149C004FF0FF317B6901FA03F3D9437B680B40B2
:1014AC00134318462437BD4680BC704780B582B0C4
:1014BC0000AF78607B68013BB3F1807F01D30123DF
:1014CC000FE00A4A7B68013B53600F214FF0FF305D
:1014DC00FFF790FF054B00229A60044B07221A601D
:1014EC00002318460837BD4680BD00BF10E000E061
:1014FC0080B582B000AF78607868FFF72DFF00BF31
:10150C000837BD4680BD80B586B000AF0346B960D4
:10151C007A60FB7300237B61FFF742FF78617A6886
:10152C00B9687869FFF790FF024697F90F301146BA
:10153C001846FFF75FFF00BF1837BD4680BD80B56A
:10154C0082B000AF0346FB7197F907301846FFF7DE
:10155C0035FF00BF0837BD4680BD80B582B000AFF7
:10156C0078607868FFF7A2FF034618460837BD4637
:10157C0080BD000080B48BB000AF78603960002370
:10158C007B6200233B6261E101227B6A02FA03F376
:10159C00FB613B681B68FA691340BB61BA69FB6964
:1015AC009A4240F050813B685B68974A93425ED008
:1015BC00954A934275D8954A934258D0934A934290
:1015CC006FD8934A934252D0914A934269D8914A28
:1015DC0093424CD08F4A934263D88F4A934246D061
:1015EC008D4A93425DD8122B2AD8122B59D801A2BE
:1015FC0052F823F07B1600085516000867160008F1
:10160C00A9160008AF160008AF160008AF160008A0
:10161C00AF160008AF160008AF160008AF1600088A
:10162C00AF160008AF160008AF160008AF1600087A
:10163C00AF160008AF1600085D16000871160008FA
:10164C00764A934213D02CE03B68DB683B6229E07E
:10165C003B68DB6804333B6224E03B68DB6808339F
:10166C003B621FE03B68DB680C333B621AE03B6873
:10167C009B68002B02D104233B6213E03B689B6800
:10168C00012B05D108233B627B68FA691A6109E0DA
:10169C0008233B627B68FA695A6103E000233B62D2
:1016AC0000E000BFBB69FF2B01D87B6801E07B68C1
:1016BC0004337B61BB69FF2B02D87B6A9B0002E081
:1016CC007B6A083B9B003B617B691A680F213B6975
:1016DC0001FA03F3DB431A40396A3B6901FA03F35D
:1016EC001A437B691A603B685B6803F08053002BDC
:1016FC0000F0A9804A4B9B69494A43F0010393616E
:10170C00474B9B6903F00103BB60BB68454A7B6A8E
:10171C009B08023352F82330FB607B6A03F003030F
:10172C009B000F2202FA03F3DB43FA681340FB60C1
:10173C007B683D4A93420DD07B683C4A934207D06C
:10174C007B683B4A934201D1022304E0032302E06D
:10175C00012300E000237A6A02F003029200934016
:10176C00FA681343FB602F497B6A9B080233FA68C3
:10177C0041F823203B685B6803F48013002B06D0F0
:10178C002C4B9A682B49BB6913438B6006E0294BA1
:10179C009A68BB69DB43274913408B603B685B68E5
:1017AC0003F40013002B06D0224BDA682149BB69E5
:1017BC001343CB6006E01F4BDA68BB69DB431D4962
:1017CC001340CB603B685B6803F40033002B06D0FE
:1017DC00184B5A681749BB6913434B6006E0154B0D
:1017EC005A68BB69DB43134913404B603B685B6829
:1017FC0003F48033002B1FD00E4B1A680D49BB69C4
:10180C0013430B601FE000BF0000321000003110CA
:10181C000000221000002110000012100000111016
:10182C00001002400000014000080140000C014083
:10183C0000100140000401400B4B1A68BB69DB43EC
:10184C00094913400B607B6A01337B623B681A6861
:10185C007B6A22FA03F3002B7FF496AE00BF00BF25
:10186C002C37BD4680BC70470004014080B485B065
:10187C0000AF78600B467B807B689A687B8813404E
:10188C00002B02D00123FB7301E00023FB73FB7BD5
:10189C0018461437BD4680BC704780B483B000AF87
:1018AC0078600B467B8013467B707B78002B03D0D3
:1018BC007A887B681A6103E07B881A047B681A615A
:1018CC0000BF0C37BD4680BC704780B485B000AFFC
:1018DC0078600B467B807B68DB68FB607A88FB68F2
:1018EC0013401A04FB68D9437B880B401A437B686E
:1018FC001A6100BF1437BD4680BC704780B586B0F6
:10190C0000AF78607B68002B01D1012372E27B6809
:10191C001B6803F00103002B00F08780924B5B687F
:10192C0003F00C03042B0CD08F4B5B6803F00C03FF
:10193C00082B12D18C4B5B6803F48033B3F5803FDA
:10194C000BD1894B1B6803F40033002B6CD07B68E4
:10195C005B68002B68D101234CE27B685B68B3F5B4
:10196C00803F06D1804B1B687F4A43F48033136061
:10197C002EE07B685B68002B0CD17B4B1B687A4A92
:10198C0023F480331360784B1B68774A23F480234D
:10199C0013601DE07B685B68B3F5A02F0CD1724B14
:1019AC001B68714A43F4802313606F4B1B686E4AAB
:1019BC0043F4803313600BE06B4B1B686A4A23F4CF
:1019CC0080331360684B1B68674A23F480231360D1
:1019DC007B685B68002B13D0FFF7B4FC386108E020
:1019EC00FFF7B0FC02463B69D31A642B01D90323E1
:1019FC0000E25D4B1B6803F40033002BF0D014E0C5
:101A0C00FFF7A0FC386108E0FFF79CFC02463B693D
:101A1C00D31A642B01D90323ECE1534B1B6803F459
:101A2C000033002BF0D100E000BF7B681B6803F093
:101A3C000203002B63D04C4B5B6803F00C03002BB0
:101A4C000BD0494B5B6803F00C03082B1CD1464BA5
:101A5C005B6803F48033002B16D1434B1B6803F0F7
:101A6C000203002B05D07B681B69012B01D00123DD
:101A7C00C0E13D4B1B6823F0F8027B685B69DB001F
:101A8C00394913430B603AE07B681B69002B20D06B
:101A9C00364B01221A60FFF755FC386108E0FFF75E
:101AAC0051FC02463B69D31A022B01D90323A1E155
:101ABC002D4B1B6803F00203002BF0D02A4B1B6844
:101ACC0023F0F8027B685B69DB00274913430B604A
:101ADC0015E0264B00221A60FFF734FC386108E051
:101AEC00FFF730FC02463B69D31A022B01D90323C2
:101AFC0080E11D4B1B6803F00203002BF0D17B68C7
:101B0C001B6803F00803002B3AD07B689B69002B01
:101B1C0019D0174B01221A60FFF714FC386108E04A
:101B2C00FFF710FC02463B69D31A022B01D90323A1
:101B3C0060E10D4B5B6A03F00203002BF0D0012037
:101B4C0000F09CFA1CE00A4B00221A60FFF7FAFB2B
:101B5C0038610FE0FFF7F6FB02463B69D31A022B04
:101B6C0008D9032346E100BF0010024000004242A6
:101B7C0080044242924B5B6A03F00203002BE9D1D2
:101B8C007B681B6803F00403002B00F0A680002385
:101B9C00FB758B4BDB6903F08053002B0DD1884B0D
:101BAC00DB69874A43F08053D361854BDB6903F0D3
:101BBC008053BB60BB680123FB75824B1B6803F42D
:101BCC008073002B18D17F4B1B687E4A43F48073C3
:101BDC001360FFF7B7FB386108E0FFF7B3FB024671
:101BEC003B69D31A642B01D9032303E1754B1B68A2
:101BFC0003F48073002BF0D07B68DB68012B06D1DB
:101C0C006F4B1B6A6E4A43F0010313622DE07B6835
:101C1C00DB68002B0CD16A4B1B6A694A23F0010369
:101C2C001362674B1B6A664A23F0040313621CE0C1
:101C3C007B68DB68052B0CD1614B1B6A604A43F057
:101C4C00040313625E4B1B6A5D4A43F0010313628B
:101C5C000BE05B4B1B6A5A4A23F001031362584B8F
:101C6C001B6A574A23F0040313627B68DB68002B62
:101C7C0015D0FFF767FB38610AE0FFF763FB0246FC
:101C8C003B69D31A41F28832934201D90323B1E064
:101C9C004B4B1B6A03F00203002BEED014E0FFF752
:101CAC0051FB38610AE0FFF74DFB02463B69D31A42
:101CBC0041F28832934201D903239BE0404B1B6ACB
:101CCC0003F00203002BEED1FB7D012B05D13C4B25
:101CDC00DB693B4A23F08053D3617B68DB69002BC3
:101CEC0000F08780364B5B6803F00C03082B61D047
:101CFC007B68DB69022B46D1334B00221A60FFF75D
:101D0C0021FB386108E0FFF71DFB02463B69D31A43
:101D1C00022B01D903236DE0294B1B6803F00073E0
:101D2C00002BF0D17B681B6AB3F5803F08D1244BA4
:101D3C005B6823F400327B689B68214913434B603A
:101D4C001F4B5B6823F474127B68196A7B685B6AAF
:101D5C000B431B4913434B601B4B01221A60FFF7CB
:101D6C00F1FA386108E0FFF7EDFA02463B69D31A45
:101D7C00022B01D903233DE0114B1B6803F00073C8
:101D8C00002BF0D035E0104B00221A60FFF7DAFA86
:101D9C00386108E0FFF7D6FA02463B69D31A022BEA
:101DAC0001D9032326E0064B1B6803F00073002BBC
:101DBC00F0D11EE07B68DB69012B07D1012319E010
:101DCC000010024000700040600042420B4B5B6808
:101DDC00FB60FB6803F480327B681B6A9A4206D175
:101DEC00FB6803F470127B685B6A9A4201D0012392
:101DFC0000E0002318461837BD4680BD0010024095
:101E0C0080B584B000AF786039607B68002B01D15D
:101E1C000123D0E06A4B1B6803F007033A689A422F
:101E2C0010D9674B1B6823F0070265493B681343C5
:101E3C000B60634B1B6803F007033A689A4201D0AE
:101E4C000123B8E07B681B6803F00203002B20D051
:101E5C007B681B6803F00403002B05D0594B5B68AF
:101E6C00584A43F4E06353607B681B6803F0080333
:101E7C00002B05D0534B5B68524A43F460535360BC
:101E8C00504B5B6823F0F0027B689B684D49134311
:101E9C004B607B681B6803F00103002B40D07B6810
:101EAC005B68012B07D1474B1B6803F40033002BF5
:101EBC0015D101237FE07B685B68022B07D1414B76
:101ECC001B6803F00073002B09D1012373E03D4B19
:101EDC001B6803F00203002B01D101236BE0394B8B
:101EEC005B6823F003027B685B68364913434B60E5
:101EFC00FFF728FAF8600AE0FFF724FA0246FB68BD
:101F0C00D31A41F28832934201D9032353E02D4B6B
:101F1C005B6803F00C027B685B689B009A42EBD118
:101F2C00274B1B6803F007033A689A4210D2244BE4
:101F3C001B6823F0070222493B6813430B60204BBC
:101F4C001B6803F007033A689A4201D0012332E080
:101F5C007B681B6803F00403002B08D0194B5B68EB
:101F6C0023F4E0627B68DB68164913434B607B68A3
:101F7C001B6803F00803002B09D0124B5B6823F499
:101F8C0060527B681B69DB000E4913434B6000F009
:101F9C0021F802460B4B5B681B0903F00F030A493F
:101FAC00CB5C22FA03F3094A1360094B1B681846F1
:101FBC00FFF786F9002318461037BD4680BD00BFD9
:101FCC000020024000100240EC2800086C000020A9
:101FDC007C00002080B487B000AF0023FB6000239E
:101FEC00BB6000237B6100237B6000233B611E4BA5
:101FFC005B68FB60FB6803F00C03042B02D0082B1E
:10200C0003D027E0194B3B6127E0FB689B0C03F0E6
:10201C000F03174AD35C7B60FB6803F48033002BFF
:10202C0010D0114B5B685B0C03F00103114AD35CBD
:10203C00BB607B680D4A03FB02F2BB68B2FBF3F397
:10204C007B6104E07B680C4A02FB03F37B617B69D8
:10205C003B6102E0054B3B6100BF3B6918461C37F6
:10206C00BD4680BC704700BF0010024000127A00D1
:10207C00FC2800080C29000800093D0080B485B03C
:10208C0000AF78600A4B1B680A4AA2FB03235B0A69
:10209C007A6802FB03F3FB6000BFFB685A1EFA6010
:1020AC00002BF9D100BF00BF1437BD4680BC704770
:1020BC006C000020D34D621080B582B000AF786008
:1020CC007B68002B01D1012341E07B6893F83D3004
:1020DC00DBB2002B06D17B68002283F83C207868A9
:1020EC00FEF756FF7B68022283F83D207B681A6856
:1020FC007B6804331946104600F056FA7B680122BF
:10210C0083F846207B68012283F83E207B680122FD
:10211C0083F83F207B68012283F840207B680122F2
:10212C0083F841207B68012283F842207B680122DE
:10213C0083F843207B68012283F844207B680122CA
:10214C0083F845207B68012283F83D200023184644
:10215C000837BD4680BD000080B485B000AF786004
:10216C007B6893F83D30DBB2012B01D0012335E0C5
:10217C007B68022283F83D207B681B68DA687B68E9
:10218C001B6842F00102DA607B681B68164A9342B6
:10219C0009D07B681B68B3F1804F04D07B681B6847
:1021AC00124A934211D17B681B689B6803F00703AA
:1021BC00FB60FB68062B10D07B681B681A687B6879
:1021CC001B6842F001021A6007E07B681B681A6802
:1021DC007B681B6842F001021A6000231846143712
:1021EC00BD4680BC704700BF002C0140000400407D
:1021FC0080B584B000AF78607B681B68DB68FB60DF
:10220C007B681B681B69BB60BB6803F00203002B77
:10221C0020D0FB6803F00203002B1BD07B681B68EB
:10222C006FF002021A617B6801221A777B681B68C7
:10223C009B6903F00303002B03D0786800F098F936
:10224C0005E0786800F08BF9786800F09AF97B6803
:10225C0000221A77BB6803F00403002B20D0FB6824
:10226C0003F00403002B1BD07B681B686FF0040287
:10227C001A617B6802221A777B681B689B6903F4DE
:10228C004073002B03D0786800F072F905E0786891
:10229C0000F065F9786800F074F97B6800221A7711
:1022AC00BB6803F00803002B20D0FB6803F0080385
:1022BC00002B1BD07B681B686FF008021A617B68CF
:1022CC0004221A777B681B68DB6903F00303002B7D
:1022DC0003D0786800F04CF905E0786800F03FF91D
:1022EC00786800F04EF97B6800221A77BB6803F01F
:1022FC001003002B20D0FB6803F01003002B1BD025
:10230C007B681B686FF010021A617B6808221A77D1
:10231C007B681B68DB6903F44073002B03D078687F
:10232C0000F026F905E0786800F019F9786800F0FB
:10233C0028F97B6800221A77BB6803F00103002B95
:10234C000CD0FB6803F00103002B07D07B681B68E3
:10235C006FF001021A617868FEF764FFBB6803F046
:10236C008003002B0CD0FB6803F08003002B07D0FC
:10237C007B681B686FF080021A61786800F06FFA56
:10238C00BB6803F04003002B0CD0FB6803F0400348
:10239C00002B07D07B681B686FF040021A617868CD
:1023AC0000F0F8F8BB6803F02003002B0CD0FB689E
:1023BC0003F02003002B07D07B681B686FF0200212
:1023CC001A61786800F042FA00BF1037BD4680BD34
:1023DC0080B584B000AF786039600023FB737B68F4
:1023EC0093F83C30012B01D10223B4E07B6801222D
:1023FC0083F83C207B68022283F83D207B681B68B5
:10240C009B68BB60BB6823F07703BB60BB6823F49D
:10241C007F43BB607B681B68BA689A603B681B682B
:10242C00B3F5005F3ED0B3F5005F00F28780B3F5E3
:10243C00805F00F08680B3F5805F7FD8702B1AD058
:10244C00702B7BD8602B50D0602B77D8502B3CD086
:10245C00502B73D8402B58D0402B6FD8302B64D0D6
:10246C00302B6BD8202B60D0202B67D8002B5CD066
:10247C00102B5AD062E07B6818683B6899683B68FF
:10248C005A683B68DB6800F06AF97B681B689B68DC
:10249C00BB60BB6843F07703BB607B681B68BA68A2
:1024AC009A604FE07B6818683B6899683B685A688B
:1024BC003B68DB6800F053F97B681B689A687B68A3
:1024CC001B6842F480429A603CE07B6818683B6869
:1024DC0059683B68DB681A4600F0CAF87B681B68D1
:1024EC005021184600F021F92CE07B6818683B68F5
:1024FC0059683B68DB681A4600F0E8F87B681B6893
:10250C006021184600F011F91CE07B6818683B68E4
:10251C0059683B68DB681A4600F0AAF87B681B68B0
:10252C004021184600F001F90CE07B681A683B6802
:10253C001B681946104600F0F8F803E00123FB7302
:10254C0000E000BF7B68012283F83D207B680022FD
:10255C0083F83C20FB7B18461037BD4680BD80B409
:10256C0083B000AF786000BF0C37BD4680BC7047AD
:10257C0080B483B000AF786000BF0C37BD4680BC20
:10258C00704780B483B000AF786000BF0C37BD4695
:10259C0080BC704780B483B000AF786000BF0C374C
:1025AC00BD4680BC7047000080B485B000AF786039
:1025BC0039607B681B68FB607B682B4A934207D0B1
:1025CC007B68B3F1804F03D07B68284A934208D1D3
:1025DC00FB6823F07003FB603B685B68FA6813438D
:1025EC00FB607B68204A934207D07B68B3F1804F35
:1025FC0003D07B681D4A934208D1FB6823F44073D7
:10260C00FB603B68DB68FA681343FB60FB6823F0F4
:10261C0080023B685B691343FB607B68FA681A6055
:10262C003B689A687B68DA623B681A687B689A62D6
:10263C007B680D4A934203D13B681A697B681A6325
:10264C007B6801225A617B681B6903F00103002B34
:10265C0005D07B681B6923F001027B681A6100BFFF
:10266C001437BD4680BC7047002C0140000400406C
:10267C0080B487B000AFF860B9607A60FB681B6A01
:10268C007B61FB681B6A23F00102FB681A62FB6822
:10269C009B693B613B6923F0F0033B617B681B0149
:1026AC003A6913433B617B6923F00A037B617A69C6
:1026BC00BB6813437B61FB683A699A61FB687A6972
:1026CC001A6200BF1C37BD4680BC704780B487B00F
:1026DC0000AFF860B9607A60FB681B6A7B61FB68CD
:1026EC001B6A23F01002FB681A62FB689B693B6152
:1026FC003B6923F470433B617B681B033A691343CA
:10270C003B617B6923F0A0037B61BB681B017A6989
:10271C0013437B61FB683A699A61FB687A691A62B8
:10272C0000BF1C37BD4680BC704780B485B000AF7D
:10273C00786039607B689B68FB60FB6823F07003F2
:10274C00FB603A68FB68134343F00703FB607B684C
:10275C00FA689A6000BF1437BD4680BC704780B4DD
:10276C0087B000AFF860B9607A603B60FB689B682B
:10277C007B617B6923F47F437B613B681A027B6836
:10278C001A43BB6813437A6913437B61FB687A690C
:10279C009A6000BF1C37BD4680BC704780B485B0C2
:1027AC0000AF786039607B6893F83C30012B01D125
:1027BC00022341E07B68012283F83C207B680222E3
:1027CC0083F83D207B681B685B68FB607B681B683B
:1027DC009B68BB60FB6823F07003FB603B681B6865
:1027EC00FA681343FB607B681B68FA685A607B6865
:1027FC001B68144A934209D07B681B68B3F1804F65
:10280C0004D07B681B68104A93420CD1BB6823F040
:10281C008003BB603B685B68BA681343BB607B6832
:10282C001B68BA689A607B68012283F83D207B683C
:10283C00002283F83C20002318461437BD4680BC88
:10284C00704700BF002C01400004004080B483B0EE
:10285C0000AF786000BF0C37BD4680BC704780B4B9
:10286C0083B000AF786000BF0C37BD4680BC7047AA
:10287C0003460244934200D1704703F8011BF9E769
:10288C0070B500260C4D0D4C641BA410A64209D14A
:10289C0000F01AF800260A4D0A4C641BA410A6423C
:1028AC0005D170BD55F8043B98470136EEE755F855
:1028BC00043B98470136F2E710290008102900085C
:1028CC001029000814290008F8B500BFF8BC08BC92
:1028DC009E467047F8B500BFF8BC08BC9E467047D2
:1028EC0000000000000000000102030406070809B4
:1028FC0002030405060708090A0B0C0D0E0F101035
:04290C0001020000C4
:042910003101000889
:042914000D010008A9
:1029180001008813B80BD0078813B80BD007010043
:1029280001010100010101000101010040008000D6
:1029380000010000F401F401F40100007E306D791B
:10294800335B5F707F7B0000010002000400080019
:1029580010002000400000000001000200040008F0
:1029680000100020004000000002000400080010D1
:1029780000200040008000000020004000127A0083
:102988006400000064000000E803E8031000000091
:04299800010000003A
:040000050800125588
:00000001FF
