:020000040800F2
:1000000000280020F512000889100008911000084F
:1000100099100008A1100008A910000800000000B5
:10002000000000000000000000000000B110000807
:10003000BD10000800000000C9100008D51000081D
:100040003D1300083D1300083D1300083D13000850
:100050003D1300083D1300083D1300083D13000840
:100060003D1300083D1300083D1300083D13000830
:100070003D1300083D1300083D1300083D13000820
:100080003D1300083D1300083D1300083D13000810
:100090003D1300083D1300083D1300083D13000800
:1000A0003D1300083D1300083D1300083D130008F0
:1000B000E11000083D130008000000003D13000897
:1000C0003D13000800000000000000003D13000880
:1000D000000000003D1300083D1300080000000070
:1000E0003D1300083D1300083D1300080000000008
:1000F0000000000000000000000000000000000000
:0C01000000000000000000005FF808F1A3
:10010C0010B5054C237833B9044B13B10448AFF345
:10011C0000800123237010BDA4000020000000000B
:10012C004429000808B5034B1BB103490348AFF33E
:10013C00008008BD00000000A80000204429000831
:10014C0080B500AF6D4B1A786D4B1B789A420AD074
:10015C006B4B1A78694B1A70694B1B78012B02D1C7
:10016C00684B00221A70664B1B78013B032B00F284
:10017C00C28001A252F823F09501000895020008F4
:10018C00B9020008DD0200085E4B1B78042B00F25C
:10019C00B18001A252F823F0B9010008D501000882
:1001AC00030200082F0200085D020008554B0122D3
:1001BC001A70554B1B68184600F0B0FF534B1B6868
:1001CC00184600F0C5FF5EE0514B524A1A61524B83
:1001DC001A68524B1B689A4204DD514B1B78DBB2F8
:1001EC00012B4BD1474B02221A704C4B1B68184603
:1001FC0000F0AEFF42E0464B4A4A1A614A4B1B786C
:10020C00DBB2012B3CD13F4B03221A70474B1B68CE
:10021C00184600F083FF464B1B68184600F098FF09
:10022C002EE03B4B434A1A613F4B1B78DBB2012B50
:10023C0005D0414B1A68414B1B689A4222DC314B6A
:10024C0004221A703D4B1B68184600F067FF19E03A
:10025C002F4B3B4A1A61324B1B78DBB2012B49D135
:10026C00284B01221A70284B1B68184600F056FFC9
:10027C00264B1B68184600F06BFF3BE000BF39E0D3
:10028C0000BF37E000BF35E02E4B1B78DBB2012BF3
:10029C0008D11F4BDB681E4A83F00903D36064202E
:1002AC0000F028FF1A4B36221A6124E0254B1B78EC
:1002BC00DBB2012B08D1164BDB68154A83F0240303
:1002CC00D360642000F016FF114B1B221A6112E060
:1002DC001C4B1B78DBB2012B08D10D4BDB680C4A95
:1002EC0083F01203D360642000F004FF084B2D222E
:1002FC001A6100E000BF00BF80BD00BF00000020FD
:10030C0028000020C0000020040000201400002061
:10031C00000C01402E0011002C01002018000020C0
:10032C003E0100201E0021003D010020080000209D
:10033C001000002035000A00300100200C000020C5
:10034C0033000C003C01002080B582B000AF0023CC
:10035C00FB7131E1FB798A4AD35C022B00F0AA8055
:10036C00022B00F32681002B03D0012B00F08A8096
:10037C001FE1FB79184600F0BDF90346002B00F095
:10038C00FB80FB797E4A0121D154FB79002B21D1D2
:10039C007C4B1B780133DAB27A4B1A70794B1B7891
:1003AC00022B04D1784B1B68784A1360E4E0754B40
:1003BC001B78032B04D1764B1B68764A1360DBE069
:1003CC00704B1B78042B40F0D780734B1B68734A1F
:1003DC001360D1E0FB79012B25D16C4B1B68704A63
:1003EC00934220DC674B1B78042B14D0042B48DC85
:1003FC00022B02D0032B07D043E0644B1B6803F5A0
:10040C007A73624A13600DE0624B1B6803F57A73D2
:10041C00604A136006E0614B1B6803F57A735F4A10
:10042C00136000BF2DE0FB79022B40F0A580554BEB
:10043C0001221A70574B1A68554B1B68D21A574B2E
:10044C001968554B1B68CB1A1A44564B1B6813443E
:10045C00544A13604D4B1A684B4B1B68D21A524BC3
:10046C001B681344504A1360484B1B68464A136080
:10047C004A4B1B68484A1360464B1B68444A13603E
:10048C007AE079E0FB79184600F034F90346002B4A
:10049C0004D1FB793A4A0021D1546FE0FB7918461C
:1004AC0000F042F90346002B68D0FB79344A022154
:1004BC00D15463E0FB79184600F01CF90346002B7D
:1004CC0004D1FB792E4A0021D15471E0FB79374AD3
:1004DC00D35C012B6CD1FB79002B20D1294B1B78E1
:1004EC000133DAB2274B1A70264B1B78022B04D13E
:1004FC00254B1B68254A136039E0224B1B78032BD4
:10050C0004D1234B1B68234A136030E01D4B1B782E
:10051C00042B2CD1204B1B68204A136027E0FB795D
:10052C00012B24D1194B1B681D4A93421FDC154B20
:10053C001B78042B14D0042B19DC022B02D0032BB8
:10054C0007D014E0114B1B6803F57A730F4A136044
:10055C000DE0104B1B6803F57A730E4A136006E02E
:10056C000E4B1B6803F57A730C4A136000BFFB79C2
:10057C000E4A0021D1541BE000BF1AE000BF18E066
:10058C00C400002028000020040000201C000020D3
:10059C000C00002024000020080000202000002077
:1005AC00B78201001000002014000020D4000020AD
:1005BC0000BFFB790133FB71FB79022B7FF6CAAECE
:1005CC00054B1B78052B02D1034B01221A7000BF7F
:1005DC000837BD4680BD00BF2800002090B583B011
:1005EC0000AF0023FB716BE0FA79FB793849895C29
:1005FC00384AD154FB79384A32F81330FC79194611
:10060C00364801F083F903461A46314B1A55FB79EB
:10061C002F4AD25CFB792F49CB5C9A424DD1FA79A7
:10062C00FB792B49895C2E4AD154FB792C4AD35C3B
:10063C00002B30D1FB792B4A32F81330B3F57A7F8B
:10064C000AD2FB79274A32F81320FB790A3291B28D
:10065C00244A22F8131030E0FB79234A0121D154AB
:10066C00FB79224A32F81320FB790A3291B21F4AE5
:10067C0022F81310FB791D4A32F81330B3F5FA7FC8
:10068C001BD3FB79194A002122F81310FB79184A65
:10069C000121D15411E0FB79124A002122F81310E8
:1006AC00FB79114A0021D154FB79104A002122F820
:1006BC001310FB790E4A0021D154FB790133FB71E5
:1006CC00FB79022B90D900BF00BF0C37BD4690BD03
:1006DC00300000203400002038000020000C0140C5
:1006EC002C000020CC000020C8000020400000207E
:1006FC00D400002080B483B000AF0346FB71FB79BB
:10070C00022B01D9002307E0FB79064AD35C002BAE
:10071C000CBF01230023DBB218460C37BD4680BC4E
:10072C00704700BF2C00002080B483B000AF03469C
:10073C00FB71FB79022B01D9FF2307E0FB79064AF9
:10074C00D35C012B0CBF01230023DBB218460C3702
:10075C00BD4680BC704700BFC800002080B485B087
:10076C0000AF204B1A78204B1B789A4235D01D4B8A
:10077C001B781A461D4B9B5CBB710023BB6000238E
:10078C00FB711DE0BA79FB79C3F1060342FA03F35E
:10079C0003F00103002B08D0FB79154A32F8133013
:1007AC001A46FB681343FB6007E0FB79104A32F8EA
:1007BC0013301A46BB681343BB60FB790133FB71E2
:1007CC00FB79062BDED9FB681A040A49BB68134374
:1007DC000B61044B1A78044B1A7000BF1437BD46DA
:1007EC0080BC704728000020DE000020480000205C
:1007FC00540000200008014080B487B000AFA54B26
:10080C001B78002B02D0012B09D012E0A24B1B88C5
:10081C001B04A14A52881A43A04B1A6109E09E4B53
:10082C001B881A469C4B5B881B041A439B4B1A6112
:10083C0000BF00237B6100233B610023FB6000238E
:10084C00BB60974B1B78013B032B00F23D8201A24E
:10085C0052F823F071080008A5090008E10A000805
:10086C00DB0B00088F4B1B688F4A82FB03121213A1
:10087C00DB17D31ADAB28D4B1A708A4B1A688A4B73
:10088C0083FB02131913D317CB1A42F2107101FB1D
:10089C0003F3D31A864A82FB03129211DB17D31A85
:1008AC00DAB2824B5A70834B1B687F4A82FB03126D
:1008BC001213DB17D31ADAB27F4B1A707D4B1A68FE
:1008CC00794B83FB02131913D317CB1A42F2107115
:1008DC0001FB03F3D31A764A82FB03129211DB1746
:1008EC00D31ADAB2744B5A706A4B1B781A466F4B98
:1008FC009B5C1A46714B9A5C714B1A70654B1B785A
:10090C001A466D4B9B5C1A466C4B9A5C6D4B1A707D
:10091C000023FB713CE06A4B1B781A46FB79C3F150
:10092C00060342FA03F303F00103002B08D0FB7912
:10093C00654A32F813301A463B6913433B6107E0B2
:10094C00FB79614A32F813301A467B6913437B6199
:10095C005C4B1B781A46FB79C3F1060342FA03F38E
:10096C0003F00103002B08D0FB79584A32F81330FE
:10097C001A46BB681343BB6007E0FB79534A32F855
:10098C0013301A46FB681343FB60FB790133FB7190
:10099C00FB79062BBFD997E14D4B1B68424A82FB72
:1009AC0003121213DB17D31ADAB2404B1A70484BEE
:1009BC001A683D4B83FB02131913D317CB1A42F25F
:1009CC00107101FB03F3D31A394A82FB0312921103
:1009DC00DB17D31ADAB2354B5A70314B1A78364BC7
:1009EC005A702C4B1B781A46304B9B5C1A46334B77
:1009FC009A5C334B1A70274B1B781A462E4B9B5C18
:100A0C001A462E4B9A5C2F4B1A700023BB713CE09C
:100A1C002B4B1B781A46BB79C3F1060342FA03F33E
:100A2C0003F00103002B08D0BB79274A32F81330AE
:100A3C001A463B6913433B6107E0BB79224A32F803
:100A4C0013301A467B6913437B611E4B1B781A4685
:100A5C00BB79C3F1060342FA03F303F00103002B45
:100A6C0008D0BB79194A32F813301A46BB681343C5
:100A7C00BB6007E0BB79154A32F813301A46FB68A5
:100A8C001343FB60BB790133BB71BB79062BBFD918
:100A9C001AE100BFDF00002084000020001001409C
:100AAC002800002034010020AD8BDB68D80000202A
:100ABC00D34D621038010020DC00002048000020DB
:100ACC00E0000020E1000020640000207400002001
:100ADC001C0000208B4B1B688B4A82FB03121213E9
:100AEC00DB17D31ADAB2894B1A70864B1A68864B0D
:100AFC0083FB02131913D317CB1A42F2107101FBAB
:100B0C0003F3D31A824A82FB03129211DB17D31A16
:100B1C00DAB27E4B5A707F4B1A787F4B5A707F4BF0
:100B2C001B781A46794B9B5C1A467D4B9A5C7D4B25
:100B3C001A707A4B1B781A46774B9B5C1A46784B8B
:100B4C009A5C794B1A7000237B713CE0754B1B78D7
:100B5C001A467B79C3F1060342FA03F303F001034F
:100B6C00002B08D07B79714A32F813301A463B6956
:100B7C0013433B6107E07B796C4A32F813301A4619
:100B8C007B6913437B61684B1B781A467B79C3F1F5
:100B9C00060342FA03F303F00103002B08D07B7920
:100BAC00634A32F813301A46BB681343BB6007E044
:100BBC007B795F4A32F813301A46FB681343FB60AB
:100BCC007B7901337B717B79062BBFD97CE0594B48
:100BDC001B684D4A82FB03121213DB17D31ADAB2CD
:100BEC004A4B1A70534B1A68474B83FB0213191369
:100BFC00D317CB1A42F2107101FB03F3D31A444AF8
:100C0C0082FB03129211DB17D31ADAB23F4B5A70E4
:100C1C00404B1A78404B5A70404B1B781A463B4B52
:100C2C009B5C1A463E4B9A5C3E4B1A703B4B1B78B6
:100C3C001A46394B9B5C1A46394B9A5C3A4B1A70E4
:100C4C0000233B713CE0374B1B781A463B79C3F1D0
:100C5C00060342FA03F303F00103002B08D03B799F
:100C6C00324A32F813301A463B6913433B6107E0B2
:100C7C003B792E4A32F813301A467B6913437B6159
:100C8C00294B1B781A463B79C3F1060342FA03F34E
:100C9C0003F00103002B08D03B79254A32F81330BE
:100CAC001A46BB681343BB6007E03B79204A32F815
:100CBC0013301A46FB681343FB603B7901333B71DD
:100CCC003B79062BBFD900BF3B691A041A497B69D3
:100CDC0013430B61BB681A041849FB6813430B617F
:100CEC000E4B1B780133DAB20C4B1A700B4B1B7882
:100CFC00012B02D9094B00221A7000BF1C37BD46CC
:100D0C0080BC704724000020AD8BDB68D80000202D
:100D1C00D34D621028000020DC000020DF000020F2
:100D2C0048000020E0000020E100002064000020CA
:100D3C00740000202000002000080140000C01403D
:100D4C0080B500AF00F0F6FA00F02CF800F0B2F825
:100D5C0000F064F80D4801F037FA0D4B1B78DBB24C
:100D6C00012BFAD1FFF7F0FAFFF7F8FCFFF7E8F9DF
:100D7C00084B1B68084A1360084B1B68084A136031
:100D8C00FFF73AFD642000F0FDF9E6E7E4000020EF
:100D9C003F0100202C0100203401002030010020F4
:100DAC003801002080B590B000AF07F1180328225D
:100DBC000021184601F094FD3B1D00221A605A6078
:100DCC009A60DA601A610223BB610123BB621023B3
:100DDC00FB6200237B6307F11803184600F0C6FD85
:100DEC000346002B01D000F0EDF80F237B600023AD
:100DFC00BB600023FB6000233B6100237B613B1D38
:100E0C000021184601F034F80346002B01D000F005
:100E1C00D9F800BF4037BD4680BD000080B586B014
:100E2C0000AF07F1080300221A605A609A60DA607A
:100E3C003B4600221A605A601D4B4FF080421A60EC
:100E4C001B4B41F63F725A60194B00229A60184BAB
:100E5C000922DA60164B00221A61154B00229A61A6
:100E6C00134801F061F90346002B01D000F0AAF8F9
:100E7C004FF48053BB6007F1080319460C4801F08E
:100E8C00DFFA0346002B01D000F09CF800233B60F6
:100E9C0000237B603B461946054801F0B7FC03462E
:100EAC00002B01D000F08EF800BF1837BD4680BD76
:100EBC00E400002080B588B000AF07F110030022D9
:100ECC001A605A609A60DA603A4B9B69394A43F06F
:100EDC0010039361374B9B6903F01003FB60FB68B5
:100EEC00344B9B69334A43F004039361314B9B6948
:100EFC0003F00403BB60BB682E4B9B692D4A43F087
:100F0C00080393612B4B9B6903F008037B607B68A0
:100F1C0001224FF4C041284800F00FFD012247F692
:100F2C00FF71264800F009FD01224FF6FF7124489D
:100F3C0000F003FD4FF4C0433B6101237B610023B0
:100F4C00BB610223FB6107F1100319461A4800F03C
:100F5C0061FB47F6FF733B6101237B610023BB619F
:100F6C000223FB6107F110031946144800F052FBF1
:100F7C004FF63F633B6101237B610023BB6102237E
:100F8C00FB6107F1100319460D4800F043FB4FF4C9
:100F9C00E0733B6101237B610123BB610223FB6195
:100FAC0007F110031946064800F034FB00BF203748
:100FBC00BD4680BD001002400010014000080140F9
:100FCC00000C014080B400AF72B600BF00BFFDE75B
:100FDC0080B485B000AF154B9B69144A43F00103F4
:100FEC009361124B9B6903F00103BB60BB680F4B11
:100FFC00DB690E4A43F08053D3610C4BDB6903F081
:10100C0080537B607B680A4B5B68FB60FB6823F05A
:10101C00E063FB60FB6843F08063FB60044AFB68A1
:10102C00536000BF1437BD4680BC704700100240AF
:10103C000000014080B584B000AF78607B681B680D
:10104C00B3F1804F13D10C4BDB690B4A43F0010316
:10105C00D361094BDB6903F00103FB60FB680022E1
:10106C0000211C2000F09FFA1C2000F0B8FA00BFF1
:10107C001037BD4680BD00BF0010024080B400AFE9
:10108C0000BFFDE780B400AF00BFFDE780B400AF48
:10109C0000BFFDE780B400AF00BFFDE780B400AF38
:1010AC0000BFFDE780B400AF00BFBD4680BC7047F9
:1010BC0080B400AF00BFBD4680BC704780B400AFA9
:1010CC0000BFBD4680BC704780B500AF00F078F91A
:1010DC0000BF80BD80B500AF024801F0C1F800BF71
:1010EC0080BD00BFE400002080B400AF00BFBD464F
:1010FC0080BC704780B483B000AF7860054B002291
:10110C001A70054A7B68136000BF0C37BD4680BC63
:10111C00704700BF3C0100208C00002080B483B0DD
:10112C0000AF7860074B00221A70074A7B68136087
:10113C00064B4FF47A721A8000BF0C37BD4680BC48
:10114C00704700BF3D0100202C01002098000020BA
:10115C0080B483B000AF7860074B00221A70074A46
:10116C007B681360064B4FF47A721A8000BF0C3701
:10117C00BD4680BC704700BF3E01002030010020FE
:10118C009A00002080B483B000AF7860054B002239
:10119C001A70054A7B68136000BF0C37BD4680BCD3
:1011AC00704700BF3F0100209000002080B400AFCA
:1011BC00384B1B68002B04DD364B1B680A3B354A49
:1011CC001360354B1B68002B13DD344B1B880A3B1B
:1011DC009AB2324B1A80314B1B88002B09D12E4B03
:1011EC001B68A3F57A732C4A13602C4B4FF47A725C
:1011FC001A802B4B1B68002B13DD2A4B1B880A3BD8
:10120C009AB2284B1A80274B1B88002B09D1244BF0
:10121C001B68A3F57A73224A1360224B4FF47A723F
:10122C001A80214B1B68002B04DD1F4B1B680A3BEB
:10123C001D4A13601D4B1B68002B04DD1B4B1B68E8
:10124C000A3B1A4A1360134B1B68002B02DC184B29
:10125C0001221A70104B1B68002B02DC154B01226B
:10126C001A700F4B1B68002B02DC134B01221A70F7
:10127C000D4B1B68002B02DC104B01221A700B4B20
:10128C001B68002B02DC0E4B01221A7000BFBD46FE
:10129C0080BC70478C0000202C010020980000209E
:1012AC00300100209A0000209000002094000020C3
:1012BC003C0100203D0100203E0100203F010020A8
:1012CC004001002080B582B000AF78607B681B685D
:1012DC00B3F1804F03D1FFF769FFFFF77FF900BF30
:1012EC000837BD4680BD0000FFF7FEFE0B480C49D9
:1012FC000C4A002302E0D458C4500433C4188C4266
:10130C00F9D3094A094C002301E013600432A242CC
:10131C00FBD301F0EDFAFFF713FD7047000000203E
:10132C00A400002088290008A40000204801002007
:10133C00FEE7000080B500AF084B1B68074A43F07E
:10134C0010031360032000F023F90F2000F008F8BD
:10135C00FFF73EFE0023184680BD00BF0020024070
:10136C0080B582B000AF7860124B1A68124B1B78B4
:10137C0019464FF47A73B3FBF1F3B2FBF3F318464F
:10138C0000F03BF90346002B01D001230EE07B68F3
:10139C000F2B0AD8002279684FF0FF3000F003F9C8
:1013AC00064A7B681360002300E0012318460837C7
:1013BC00BD4680BD88000020A00000209C000020BD
:1013CC0080B400AF054B1B781A46054B1B681344C1
:1013DC00034A136000BFBD4680BC7047A0000020CC
:1013EC004401002080B400AF024B1B681846BD4678
:1013FC0080BC70474401002080B485B000AF786099
:10140C007B6803F00703FB600C4BDB68BB60BA68BE
:10141C004FF6FF031340BB60FB681A02BB68134313
:10142C0043F0BF6343F40033BB60044ABB68D36032
:10143C0000BF1437BD4680BC704700BF00ED00E014
:10144C0080B400AF044BDB681B0A03F0070318469B
:10145C00BD4680BC704700BF00ED00E080B483B097
:10146C0000AF0346FB7197F90730002B0BDBFB79C0
:10147C0003F01F02064997F907305B09012000FAB7
:10148C0002F241F8232000BF0C37BD4680BC7047E8
:10149C0000E100E080B483B000AF03463960FB711B
:1014AC0097F90730002B0ADB3B68DAB20C4997F945
:1014BC0007301201D2B20B4483F800230AE03B68D8
:1014CC00DAB20849FB7903F00F03043B1201D2B2E4
:1014DC000B441A7600BF0C37BD4680BC704700BF6A
:1014EC0000E100E000ED00E080B489B000AFF860EE
:1014FC00B9607A60FB6803F00703FB61FB69C3F119
:10150C000703042B28BF0423BB61FB690433062BA0
:10151C0002D9FB69033B00E000237B614FF0FF32F3
:10152C00BB6902FA03F3DA43BB681A407B699A4041
:10153C004FF0FF317B6901FA03F3D9437B680B4011
:10154C00134318462437BD4680BC704780B582B023
:10155C0000AF78607B68013BB3F1807F01D301233E
:10156C000FE00A4A7B68013B53600F214FF0FF30BC
:10157C00FFF790FF054B00229A60044B07221A607C
:10158C00002318460837BD4680BD00BF10E000E0C0
:10159C0080B582B000AF78607868FFF72DFF00BF90
:1015AC000837BD4680BD80B586B000AF0346B96034
:1015BC007A60FB7300237B61FFF742FF78617A68E6
:1015CC00B9687869FFF790FF024697F90F3011461A
:1015DC001846FFF75FFF00BF1837BD4680BD80B5CA
:1015EC0082B000AF0346FB7197F907301846FFF73E
:1015FC0035FF00BF0837BD4680BD80B582B000AF57
:10160C0078607868FFF7A2FF034618460837BD4696
:10161C0080BD000080B48BB000AF786039600023CF
:10162C007B6200233B6261E101227B6A02FA03F3D5
:10163C00FB613B681B68FA691340BB61BA69FB69C3
:10164C009A4240F050813B685B68974A93425ED067
:10165C00954A934275D8954A934258D0934A9342EF
:10166C006FD8934A934252D0914A934269D8914A87
:10167C0093424CD08F4A934263D88F4A934246D0C0
:10168C008D4A93425DD8122B2AD8122B59D801A21D
:10169C0052F823F01B170008F5160008071700086E
:1016AC00491700084F1700084F1700084F1700087C
:1016BC004F1700084F1700084F1700084F17000866
:1016CC004F1700084F1700084F1700084F17000856
:1016DC004F1700084F170008FD16000811170008D7
:1016EC00764A934213D02CE03B68DB683B6229E0DE
:1016FC003B68DB6804333B6224E03B68DB680833FF
:10170C003B621FE03B68DB680C333B621AE03B68D2
:10171C009B68002B02D104233B6213E03B689B685F
:10172C00012B05D108233B627B68FA691A6109E039
:10173C0008233B627B68FA695A6103E000233B6231
:10174C0000E000BFBB69FF2B01D87B6801E07B6820
:10175C0004337B61BB69FF2B02D87B6A9B0002E0E0
:10176C007B6A083B9B003B617B691A680F213B69D4
:10177C0001FA03F3DB431A40396A3B6901FA03F3BC
:10178C001A437B691A603B685B6803F08053002B3B
:10179C0000F0A9804A4B9B69494A43F001039361CD
:1017AC00474B9B6903F00103BB60BB68454A7B6AEE
:1017BC009B08023352F82330FB607B6A03F003036F
:1017CC009B000F2202FA03F3DB43FA681340FB6021
:1017DC007B683D4A93420DD07B683C4A934207D0CC
:1017EC007B683B4A934201D1022304E0032302E0CD
:1017FC00012300E000237A6A02F003029200934076
:10180C00FA681343FB602F497B6A9B080233FA6822
:10181C0041F823203B685B6803F48013002B06D04F
:10182C002C4B9A682B49BB6913438B6006E0294B00
:10183C009A68BB69DB43274913408B603B685B6844
:10184C0003F40013002B06D0224BDA682149BB6944
:10185C001343CB6006E01F4BDA68BB69DB431D49C1
:10186C001340CB603B685B6803F40033002B06D05D
:10187C00184B5A681749BB6913434B6006E0154B6C
:10188C005A68BB69DB43134913404B603B685B6888
:10189C0003F48033002B1FD00E4B1A680D49BB6923
:1018AC0013430B601FE000BF00003210000031102A
:1018BC000000221000002110000012100000111076
:1018CC00001002400000014000080140000C0140E3
:1018DC0000100140000401400B4B1A68BB69DB434C
:1018EC00094913400B607B6A01337B623B681A68C1
:1018FC007B6A22FA03F3002B7FF496AE00BF00BF85
:10190C002C37BD4680BC70470004014080B485B0C4
:10191C0000AF78600B467B807B689A687B881340AD
:10192C00002B02D00123FB7301E00023FB73FB7B34
:10193C0018461437BD4680BC704780B483B000AFE6
:10194C0078600B467B8013467B707B78002B03D032
:10195C007A887B681A6103E07B881A047B681A61B9
:10196C0000BF0C37BD4680BC7047000080B586B008
:10197C0000AF78607B68002B01D1012372E27B6899
:10198C001B6803F00103002B00F08780924B5B680F
:10199C0003F00C03042B0CD08F4B5B6803F00C038F
:1019AC00082B12D18C4B5B6803F48033B3F5803F6A
:1019BC000BD1894B1B6803F40033002B6CD07B6874
:1019CC005B68002B68D101234CE27B685B68B3F544
:1019DC00803F06D1804B1B687F4A43F480331360F1
:1019EC002EE07B685B68002B0CD17B4B1B687A4A22
:1019FC0023F480331360784B1B68774A23F48023DD
:101A0C0013601DE07B685B68B3F5A02F0CD1724BA3
:101A1C001B68714A43F4802313606F4B1B686E4A3A
:101A2C0043F4803313600BE06B4B1B686A4A23F45E
:101A3C0080331360684B1B68674A23F48023136060
:101A4C007B685B68002B13D0FFF7CCFC386108E097
:101A5C00FFF7C8FC02463B69D31A642B01D9032358
:101A6C0000E25D4B1B6803F40033002BF0D014E054
:101A7C00FFF7B8FC386108E0FFF7B4FC02463B699D
:101A8C00D31A642B01D90323ECE1534B1B6803F4E9
:101A9C000033002BF0D100E000BF7B681B6803F023
:101AAC000203002B63D04C4B5B6803F00C03002B40
:101ABC000BD0494B5B6803F00C03082B1CD1464B35
:101ACC005B6803F48033002B16D1434B1B6803F087
:101ADC000203002B05D07B681B69012B01D001236D
:101AEC00C0E13D4B1B6823F0F8027B685B69DB00AF
:101AFC00394913430B603AE07B681B69002B20D0FB
:101B0C00364B01221A60FFF76DFC386108E0FFF7D5
:101B1C0069FC02463B69D31A022B01D90323A1E1CC
:101B2C002D4B1B6803F00203002BF0D02A4B1B68D3
:101B3C0023F0F8027B685B69DB00274913430B60D9
:101B4C0015E0264B00221A60FFF74CFC386108E0C8
:101B5C00FFF748FC02463B69D31A022B01D9032339
:101B6C0080E11D4B1B6803F00203002BF0D17B6856
:101B7C001B6803F00803002B3AD07B689B69002B91
:101B8C0019D0174B01221A60FFF72CFC386108E0C2
:101B9C00FFF728FC02463B69D31A022B01D9032319
:101BAC0060E10D4B5B6A03F00203002BF0D00120C7
:101BBC0000F09CFA1CE00A4B00221A60FFF712FCA2
:101BCC0038610FE0FFF70EFC02463B69D31A022B7B
:101BDC0008D9032346E100BF001002400000424236
:101BEC0080044242924B5B6A03F00203002BE9D162
:101BFC007B681B6803F00403002B00F0A680002315
:101C0C00FB758B4BDB6903F08053002B0DD1884B9C
:101C1C00DB69874A43F08053D361854BDB6903F062
:101C2C008053BB60BB680123FB75824B1B6803F4BC
:101C3C008073002B18D17F4B1B687E4A43F4807352
:101C4C001360FFF7CFFB386108E0FFF7CBFB0246D0
:101C5C003B69D31A642B01D9032303E1754B1B6831
:101C6C0003F48073002BF0D07B68DB68012B06D16A
:101C7C006F4B1B6A6E4A43F0010313622DE07B68C5
:101C8C00DB68002B0CD16A4B1B6A694A23F00103F9
:101C9C001362674B1B6A664A23F0040313621CE051
:101CAC007B68DB68052B0CD1614B1B6A604A43F0E7
:101CBC00040313625E4B1B6A5D4A43F0010313621B
:101CCC000BE05B4B1B6A5A4A23F001031362584B1F
:101CDC001B6A574A23F0040313627B68DB68002BF2
:101CEC0015D0FFF77FFB38610AE0FFF77BFB02465C
:101CFC003B69D31A41F28832934201D90323B1E0F4
:101D0C004B4B1B6A03F00203002BEED014E0FFF7E1
:101D1C0069FB38610AE0FFF765FB02463B69D31AA1
:101D2C0041F28832934201D903239BE0404B1B6A5A
:101D3C0003F00203002BEED1FB7D012B05D13C4BB4
:101D4C00DB693B4A23F08053D3617B68DB69002B52
:101D5C0000F08780364B5B6803F00C03082B61D0D6
:101D6C007B68DB69022B46D1334B00221A60FFF7EC
:101D7C0039FB386108E0FFF735FB02463B69D31AA3
:101D8C00022B01D903236DE0294B1B6803F0007370
:101D9C00002BF0D17B681B6AB3F5803F08D1244B34
:101DAC005B6823F400327B689B68214913434B60CA
:101DBC001F4B5B6823F474127B68196A7B685B6A3F
:101DCC000B431B4913434B601B4B01221A60FFF75B
:101DDC0009FB386108E0FFF705FB02463B69D31AA3
:101DEC00022B01D903233DE0114B1B6803F0007358
:101DFC00002BF0D035E0104B00221A60FFF7F2FAFE
:101E0C00386108E0FFF7EEFA02463B69D31A022B61
:101E1C0001D9032326E0064B1B6803F00073002B4B
:101E2C00F0D11EE07B68DB69012B07D1012319E09F
:101E3C000010024000700040600042420B4B5B6897
:101E4C00FB60FB6803F480327B681B6A9A4206D104
:101E5C00FB6803F470127B685B6A9A4201D0012321
:101E6C0000E0002318461837BD4680BD0010024024
:101E7C0080B584B000AF786039607B68002B01D1ED
:101E8C000123D0E06A4B1B6803F007033A689A42BF
:101E9C0010D9674B1B6823F0070265493B68134355
:101EAC000B60634B1B6803F007033A689A4201D03E
:101EBC000123B8E07B681B6803F00203002B20D0E1
:101ECC007B681B6803F00403002B05D0594B5B683F
:101EDC00584A43F4E06353607B681B6803F00803C3
:101EEC00002B05D0534B5B68524A43F4605353604C
:101EFC00504B5B6823F0F0027B689B684D491343A1
:101F0C004B607B681B6803F00103002B40D07B689F
:101F1C005B68012B07D1474B1B6803F40033002B84
:101F2C0015D101237FE07B685B68022B07D1414B05
:101F3C001B6803F00073002B09D1012373E03D4BA8
:101F4C001B6803F00203002B01D101236BE0394B1A
:101F5C005B6823F003027B685B68364913434B6074
:101F6C00FFF740FAF8600AE0FFF73CFA0246FB681C
:101F7C00D31A41F28832934201D9032353E02D4BFB
:101F8C005B6803F00C027B685B689B009A42EBD1A8
:101F9C00274B1B6803F007033A689A4210D2244B74
:101FAC001B6823F0070222493B6813430B60204B4C
:101FBC001B6803F007033A689A4201D0012332E010
:101FCC007B681B6803F00403002B08D0194B5B687B
:101FDC0023F4E0627B68DB68164913434B607B6833
:101FEC001B6803F00803002B09D0124B5B6823F429
:101FFC0060527B681B69DB000E4913434B6000F099
:10200C0021F802460B4B5B681B0903F00F030A49CE
:10201C00CB5C22FA03F3094A1360094B1B68184680
:10202C00FFF79EF9002318461037BD4680BD00BF50
:10203C0000200240001002405C29000888000020AB
:10204C009C00002080B487B000AF0023FB6000230D
:10205C00BB6000237B6100237B6000233B611E4B34
:10206C005B68FB60FB6803F00C03042B02D0082BAD
:10207C0003D027E0194B3B6127E0FB689B0C03F076
:10208C000F03174AD35C7B60FB6803F48033002B8F
:10209C0010D0114B5B685B0C03F00103114AD35C4D
:1020AC00BB607B680D4A03FB02F2BB68B2FBF3F327
:1020BC007B6104E07B680C4A02FB03F37B617B6968
:1020CC003B6102E0054B3B6100BF3B6918461C3786
:1020DC00BD4680BC704700BF0010024000127A0061
:1020EC006C2900087C29000800093D0080B485B0EB
:1020FC0000AF78600A4B1B680A4AA2FB03235B0AF9
:10210C007A6802FB03F3FB6000BFFB685A1EFA609F
:10211C00002BF9D100BF00BF1437BD4680BC7047FF
:10212C0088000020D34D621080B582B000AF78607B
:10213C007B68002B01D1012341E07B6893F83D3093
:10214C00DBB2002B06D17B68002283F83C20786838
:10215C00FEF770FF7B68022283F83D207B681A68CB
:10216C007B6804331946104600F056FA7B6801224E
:10217C0083F846207B68012283F83E207B6801228D
:10218C0083F83F207B68012283F840207B68012282
:10219C0083F841207B68012283F842207B6801226E
:1021AC0083F843207B68012283F844207B6801225A
:1021BC0083F845207B68012283F83D2000231846D4
:1021CC000837BD4680BD000080B485B000AF786094
:1021DC007B6893F83D30DBB2012B01D0012335E055
:1021EC007B68022283F83D207B681B68DA687B6879
:1021FC001B6842F00102DA607B681B68164A934246
:10220C0009D07B681B68B3F1804F04D07B681B68D6
:10221C00124A934211D17B681B689B6803F0070339
:10222C00FB60FB68062B10D07B681B681A687B6808
:10223C001B6842F001021A6007E07B681B681A6891
:10224C007B681B6842F001021A60002318461437A1
:10225C00BD4680BC704700BF002C0140000400400C
:10226C0080B584B000AF78607B681B68DB68FB606E
:10227C007B681B681B69BB60BB6803F00203002B07
:10228C0020D0FB6803F00203002B1BD07B681B687B
:10229C006FF002021A617B6801221A777B681B6857
:1022AC009B6903F00303002B03D0786800F098F9C6
:1022BC0005E0786800F08BF9786800F09AF97B6893
:1022CC0000221A77BB6803F00403002B20D0FB68B4
:1022DC0003F00403002B1BD07B681B686FF0040217
:1022EC001A617B6802221A777B681B689B6903F46E
:1022FC004073002B03D0786800F072F905E0786821
:10230C0000F065F9786800F074F97B6800221A77A0
:10231C00BB6803F00803002B20D0FB6803F0080314
:10232C00002B1BD07B681B686FF008021A617B685E
:10233C0004221A777B681B68DB6903F00303002B0C
:10234C0003D0786800F04CF905E0786800F03FF9AC
:10235C00786800F04EF97B6800221A77BB6803F0AE
:10236C001003002B20D0FB6803F01003002B1BD0B4
:10237C007B681B686FF010021A617B6808221A7761
:10238C007B681B68DB6903F44073002B03D078680F
:10239C0000F026F905E0786800F019F9786800F08B
:1023AC0028F97B6800221A77BB6803F00103002B25
:1023BC000CD0FB6803F00103002B07D07B681B6873
:1023CC006FF001021A617868FEF77CFFBB6803F0BE
:1023DC008003002B0CD0FB6803F08003002B07D08C
:1023EC007B681B686FF080021A61786800F06FFAE6
:1023FC00BB6803F04003002B0CD0FB6803F04003D8
:10240C00002B07D07B681B686FF040021A6178685C
:10241C0000F0F8F8BB6803F02003002B0CD0FB682D
:10242C0003F02003002B07D07B681B686FF02002A1
:10243C001A61786800F042FA00BF1037BD4680BDC3
:10244C0080B584B000AF786039600023FB737B6883
:10245C0093F83C30012B01D10223B4E07B680122BC
:10246C0083F83C207B68022283F83D207B681B6844
:10247C009B68BB60BB6823F07703BB60BB6823F42D
:10248C007F43BB607B681B68BA689A603B681B68BB
:10249C00B3F5005F3ED0B3F5005F00F28780B3F573
:1024AC00805F00F08680B3F5805F7FD8702B1AD0E8
:1024BC00702B7BD8602B50D0602B77D8502B3CD016
:1024CC00502B73D8402B58D0402B6FD8302B64D066
:1024DC00302B6BD8202B60D0202B67D8002B5CD0F6
:1024EC00102B5AD062E07B6818683B6899683B688F
:1024FC005A683B68DB6800F06AF97B681B689B686C
:10250C00BB60BB6843F07703BB607B681B68BA6831
:10251C009A604FE07B6818683B6899683B685A681A
:10252C003B68DB6800F053F97B681B689A687B6832
:10253C001B6842F480429A603CE07B6818683B68F8
:10254C0059683B68DB681A4600F0CAF87B681B6860
:10255C005021184600F021F92CE07B6818683B6884
:10256C0059683B68DB681A4600F0E8F87B681B6822
:10257C006021184600F011F91CE07B6818683B6874
:10258C0059683B68DB681A4600F0AAF87B681B6840
:10259C004021184600F001F90CE07B681A683B6892
:1025AC001B681946104600F0F8F803E00123FB7392
:1025BC0000E000BF7B68012283F83D207B6800228D
:1025CC0083F83C20FB7B18461037BD4680BD80B499
:1025DC0083B000AF786000BF0C37BD4680BC70473D
:1025EC0080B483B000AF786000BF0C37BD4680BCB0
:1025FC00704780B483B000AF786000BF0C37BD4625
:10260C0080BC704780B483B000AF786000BF0C37DB
:10261C00BD4680BC7047000080B485B000AF7860C8
:10262C0039607B681B68FB607B682B4A934207D040
:10263C007B68B3F1804F03D07B68284A934208D162
:10264C00FB6823F07003FB603B685B68FA6813431C
:10265C00FB607B68204A934207D07B68B3F1804FC4
:10266C0003D07B681D4A934208D1FB6823F4407366
:10267C00FB603B68DB68FA681343FB60FB6823F084
:10268C0080023B685B691343FB607B68FA681A60E5
:10269C003B689A687B68DA623B681A687B689A6266
:1026AC007B680D4A934203D13B681A697B681A63B5
:1026BC007B6801225A617B681B6903F00103002BC4
:1026CC0005D07B681B6923F001027B681A6100BF8F
:1026DC001437BD4680BC7047002C014000040040FC
:1026EC0080B487B000AFF860B9607A60FB681B6A91
:1026FC007B61FB681B6A23F00102FB681A62FB68B2
:10270C009B693B613B6923F0F0033B617B681B01D8
:10271C003A6913433B617B6923F00A037B617A6955
:10272C00BB6813437B61FB683A699A61FB687A6901
:10273C001A6200BF1C37BD4680BC704780B487B09E
:10274C0000AFF860B9607A60FB681B6A7B61FB685C
:10275C001B6A23F01002FB681A62FB689B693B61E1
:10276C003B6923F470433B617B681B033A69134359
:10277C003B617B6923F0A0037B61BB681B017A6919
:10278C0013437B61FB683A699A61FB687A691A6248
:10279C0000BF1C37BD4680BC704780B485B000AF0D
:1027AC00786039607B689B68FB60FB6823F0700382
:1027BC00FB603A68FB68134343F00703FB607B68DC
:1027CC00FA689A6000BF1437BD4680BC704780B46D
:1027DC0087B000AFF860B9607A603B60FB689B68BB
:1027EC007B617B6923F47F437B613B681A027B68C6
:1027FC001A43BB6813437A6913437B61FB687A699C
:10280C009A6000BF1C37BD4680BC704780B485B051
:10281C0000AF786039607B6893F83C30012B01D1B4
:10282C00022341E07B68012283F83C207B68022272
:10283C0083F83D207B681B685B68FB607B681B68CA
:10284C009B68BB60FB6823F07003FB603B681B68F4
:10285C00FA681343FB607B681B68FA685A607B68F4
:10286C001B68144A934209D07B681B68B3F1804FF4
:10287C0004D07B681B68104A93420CD1BB6823F0D0
:10288C008003BB603B685B68BA681343BB607B68C2
:10289C001B68BA689A607B68012283F83D207B68CC
:1028AC00002283F83C20002318461437BD4680BC18
:1028BC00704700BF002C01400004004080B483B07E
:1028CC0000AF786000BF0C37BD4680BC704780B449
:1028DC0083B000AF786000BF0C37BD4680BC70473A
:1028EC0003460244934200D1704703F8011BF9E7F9
:1028FC0070B500260C4D0D4C641BA410A64209D1DA
:10290C0000F01AF800260A4D0A4C641BA410A642CB
:10291C0005D170BD55F8043B98470136EEE755F8E4
:10292C00043B98470136F2E780290008802900080B
:10293C008029000884290008F8B500BFF8BC08BC41
:10294C009E467047F8B500BFF8BC08BC9E46704761
:10295C000000000000000000010203040607080943
:10296C0002030405060708090A0B0C0D0E0F1010C4
:04297C000102000054
:042980003101000819
:042984000D01000839
:102988000100000088130000B80B0000D007000009
:1029980088130000B80B0000D0070000881300005F
:1029A800B80B0000D0070000010000000101010081
:1029B8000101010001010100400080000001000048
:1029C800F401F401F40100007E306D79335B5F702F
:1029D8007F7B0000010002000400080010002000B6
:1029E8004000000000010002000400080010002060
:1029F8000040000000020004000800100020004011
:102A0800008000000020004000127A00FA00000058
:102A180064000000FA000000E803E803100000006A
:042A280001000000A9
:04000005080012F5E8
:00000001FF
