:020000040800F2
:100000000028002079120008751000087D100008F3
:10001000851000088D1000089510000800000000F1
:100020000000000000000000000000009D1000081B
:10003000A910000800000000B5100008C110000859
:10004000C1120008C1120008C1120008C112000844
:10005000C1120008C1120008C1120008C112000834
:10006000C1120008C1120008C1120008C112000824
:10007000C1120008C1120008C1120008C112000814
:10008000C1120008C1120008C1120008C112000804
:10009000C1120008C1120008C1120008C1120008F4
:1000A000C1120008C1120008C1120008C1120008E4
:1000B000CD100008C112000800000000C1120008A5
:1000C000C11200080000000000000000C11200087A
:1000D00000000000C1120008C1120008000000006A
:1000E000C1120008C1120008C1120008000000007F
:1000F0000000000000000000000000000000000000
:0C01000000000000000000005FF808F1A3
:10010C0010B5054C237833B9044B13B10448AFF345
:10011C0000800123237010BD8C0000200000000023
:10012C00F828000808B5034B1BB103490348AFF38B
:10013C00008008BD0000000090000020F828000896
:10014C0080B500AFAF4B1B78DAB2AF4B1B78DBB28C
:10015C009A4207D0AD4B00221A70AB4B1B78DAB227
:10016C00A84B1A70A84B1B78DBB2013B032B00F297
:10017C00AC8101A252F823F095010008C7030008D6
:10018C00410400088B040008A04B1B78DBB2042B45
:10019C0000F29A8101A252F823F000BFBD010008C1
:1001AC00DD0100084F020008CD0200083D030008E5
:1001BC00964B01221A70964B1B889BB2184600F086
:1001CC008FFF944B1B889BB2184600F0A3FFF3E003
:1001DC0000220121904801F072FB012202218E487D
:1001EC0001F06DFB012204218B4801F068FB012218
:1001FC000821894801F063FB00221021864801F098
:10020C005EFB01222021844801F059FB834B1B88A3
:10021C009BB21A46824B1B689A4205DA814B1B78BB
:10022C00DBB2012B40F0C3807E4B00221A70774B5F
:10023C0002221A70794B1B889BB2184600F06AFF99
:10024C00B5E000220121744801F039FB01220221A2
:10025C00714801F034FB012204216F4801F02FFB9F
:10026C00012208216C4801F02AFB012210216A4866
:10027C0001F025FB00222021674801F020FB6A4B8E
:10028C001B78DBB2012B05D0664B1B78DBB2012B44
:10029C0040F08F80644B00221A70624B00221A705F
:1002AC005A4B03221A705B4B1B889BB2184600F00A
:1002BC0017FF574B1B889BB2184600F02BFF78E0BA
:1002CC0001220121544801F0FAFA0022022152487D
:1002DC0001F0F5FA012204214F4801F0F0FA002256
:1002EC0008214D4801F0EBFA012210214A4801F097
:1002FC00E6FA01222021484801F0E1FA4A4B1B782A
:10030C00DBB2012B07D0454B1B889BB21A46474BDF
:10031C001B689A424FDB444B00221A703B4B042261
:10032C001A703E4B1B889BB2184600F0D9FE42E077
:10033C0001220121384801F0C2FA0122022136487B
:10034C0001F0BDFA00220421334801F0B8FA002272
:10035C000821314801F0B3FA012210212E4801F096
:10036C00AEFA012220212C4801F0A9FA2E4B1B7861
:10037C00DBB2012B05D02B4B1B78DBB2012B40F0F1
:10038C00A380294B00221A70264B00221A701F4B97
:10039C0001221A701E4B1B889BB2184600F0A0FE5F
:1003AC001C4B1B889BB2184600F0B4FE8CE000BFBF
:1003BC008AE000BF88E000BF86E01D4B1B78DBB2F3
:1003CC00012B0AD10121144801F091FA082112489D
:1003DC0001F08DFA164B00221A70012202210E48F0
:1003EC0001F06DFA012204210B4801F068FA012298
:1003FC001021094801F063FA01222021064801F07E
:10040C005EFA62E0000000200E000020A800002030
:10041C000200002004000020000C01400600002017
:10042C006C0000202A01002029010020700000200F
:10043C0028010020264B1B78DBB2012B0AD10421AA
:10044C00244801F054FA2021224801F050FA204BA4
:10045C0000221A70012201211E4801F030FA0122FB
:10046C0002211C4801F02BFA01220821194801F045
:10047C0026FA01221021174801F021FA25E0144B2D
:10048C001B78DBB2012B0AD10221124801F02FFAA2
:10049C001021104801F02BFA0D4B00221A7001228A
:1004AC0001210C4801F00BFA01220421094801F04A
:1004BC0006FA01220821074801F001FA0122202145
:1004CC00044801F0FCF900E000BF00BF80BD00BF94
:1004DC0028010020000C014080B582B000AF002341
:1004EC00FB7106E1FB798B4AD35C022B00F0948004
:1004FC00022B00F3FB80002B02D0012B74D0F5E013
:10050C00FB79184600F0A4F90346002B00F0E980B3
:10051C00FB79804A0121D154FB79002B07D17E4B0A
:10052C001B78DBB20133DAB27B4B1A70D9E0FB7962
:10053C00012B41D1794B1B88774B1B78DBB2042BF9
:10054C0028D0042B4FDC022B02D0032B11D04AE015
:10055C00734B1B889BB203F57A739AB2704B1A805B
:10056C00704B1B889BB203F57A739AB26D4B1A8051
:10057C0021E06D4B1B889BB203F57A739AB26A4BE0
:10058C001A80684B1B889BB203F57A739AB2654B41
:10059C001A8010E0624B1B889BB203F57A739AB2F7
:1005AC005F4B1A805F4B1B889BB203F57A739AB230
:1005BC005C4B1A8000BF16E0FB79022B40F0918057
:1005CC00554B01221A70574B1B889AB2534B1A8009
:1005DC00534B1B889AB2554B1A80534B1B889AB2BB
:1005EC00534B1A807DE07CE0FB79184600F030F923
:1005FC000346002B04D1FB79464A0021D15472E00A
:10060C00FB79184600F03EF90346002B6BD0FB79C2
:10061C00404A0221D15466E0FB79184600F018F9E3
:10062C000346002B04D1FB793A4A0021D1545CE0FB
:10063C00FB79404AD35C012B57D1FB79002B07D1B6
:10064C00354B1B78DBB20133DAB2334B1A7043E013
:10065C00FB79012B40D1314B1B882F4B1B78DBB224
:10066C00042B28D0042B37DC022B02D0032B11D007
:10067C0032E02B4B1B889BB203F57A739AB2284B52
:10068C001A80284B1B889BB203F57A739AB2254BC0
:10069C001A8021E0244B1B889BB203F57A739AB223
:1006AC00214B1A801F4B1B889BB203F57A739AB2AD
:1006BC001C4B1A8010E01A4B1B889BB203F57A7303
:1006CC009AB2174B1A80174B1B889BB203F57A739F
:1006DC009AB2144B1A8000BFFB79164A0021D154F0
:1006EC0003E000BF02E000BF00E000BFFB79013374
:1006FC00FB71FB79022B7FF6F5AE074B1B78DBB257
:10070C00052B02D1044B01221A7000BF0837BD46DD
:10071C0080BD00BFAC0000200E00002002000020B5
:10072C000A000020080000200C000020040000201B
:10073C0006000020BC00002090B583B000AF002361
:10074C00FB716BE0FA79FB793849895C384AD154F2
:10075C00FB79384A32F81330FC791946364801F0E7
:10076C0097F803461A46314B1A55FB792F4AD25C3F
:10077C00FB792F49CB5C9A424DD1FA79FB792B4905
:10078C00895C2E4AD154FB792C4AD35C002B30D196
:10079C00FB792B4A32F81330B3F57A7F0AD2FB7906
:1007AC00274A32F81320FB790A3291B2244A22F8F4
:1007BC00131030E0FB79234A0121D154FB79224AF2
:1007CC0032F81320FB790A3291B21F4A22F8131027
:1007DC00FB791D4A32F81330B3F5FA7F1BD3FB7942
:1007EC00194A002122F81310FB79184A0121D1541F
:1007FC0011E0FB79124A002122F81310FB79114AFF
:10080C000021D154FB79104A002122F81310FB79F6
:10081C000E4A0021D154FB790133FB71FB79022B79
:10082C0090D900BF00BF0C37BD4690BD140000200E
:10083C00180000201C000020000C014010000020BB
:10084C00B4000020B0000020C0000020BC0000203C
:10085C0080B483B000AF0346FB71FB79022B01D946
:10086C00002307E0FB79064AD35C002B0CBF012365
:10087C000023DBB218460C37BD4680BC704700BF66
:10088C001000002080B483B000AF0346FB71FB79ED
:10089C00022B01D9FF2307E0FB79064AD35C012B1D
:1008AC000CBF01230023DBB218460C37BD4680BCBD
:1008BC00704700BFB000002080B582B000AF1A4B6B
:1008CC001B78DAB2194B1B789A4229D0164B1B783D
:1008DC00DBB21A46164B9B5CBB710023FB7117E015
:1008EC00FB79144A32F81310BA79FB79C3F1060379
:1008FC0042FA03F303F00103002B0CBF0123002386
:10090C00DBB21A460C4800F0DAFFFB790133FB71BD
:10091C00FB79062BE4D9044B1B78DAB2034B1A7023
:10092C0000BF0837BD4680BD0E000020D20000205D
:10093C0024000020300000200008014080B582B067
:10094C0000AFA34B1B78002B02D0012B0FD01DE066
:10095C00A04B1B88002219469F4800F0B0FF9D4B0E
:10096C005B88012219469C4800F0A9FF0EE0994BC8
:10097C001B8801221946984800F0A1FF954B5B8813
:10098C0000221946944800F09AFF00BF934B1B7845
:10099C00DBB2013B032B00F2C08101A252F823F021
:1009AC00BD090008D90A0008810B00087F0C00085B
:1009BC008B4B1B688B4A82FB03121213DB17D31A67
:1009CC00DAB2894B1A70864B1A68864B83FB02137A
:1009DC001913D317CB1A42F2107101FB03F3D31A7C
:1009EC00824A82FB03129211DB17D31ADAB27E4BC6
:1009FC005A707F4B1B687B4A82FB03121213DB1766
:100A0C00D31ADAB27B4B1A70794B1A68754B83FB8D
:100A1C0002131913D317CB1A42F2107101FB03F313
:100A2C00D31A724A82FB03129211DB17D31ADAB271
:100A3C00704B5A70664B1B781A466B4B9B5C1A4674
:100A4C006D4B9A5C6D4B1A70614B1B781A46694B57
:100A5C009B5C1A46684B9A5C694B1A700023FB71BD
:100A6C0030E0FB79674A32F81310644B1B781A4656
:100A7C00FB79C3F1060342FA03F303F00103002BE5
:100A8C000CBF01230023DBB21A465F4800F017FFAE
:100A9C00FB795E4A32F81310594B1B781A46FB79D6
:100AAC00C3F1060342FA03F303F00103002B0CBF5E
:100ABC0001230023DBB21A46554800F000FFFB79F6
:100ACC000133FB71FB79062BCBD926E1514B1B88EB
:100ADC009BB2514AA2FB03235B0B9BB2DAB24F4B86
:100AEC001A704C4B1B889BB24B4AA2FB0312520B45
:100AFC0042F2107101FB02F29B1A9BB23B4AA2FB21
:100B0C0003239B099BB2DAB2444B5A70304B1B78CF
:100B1C001A46424B9B5C1A46374B9A5C374B1A7001
:100B2C000023BB7122E0BB79364A32F81310334BE9
:100B3C001B781A46BB79C3F1060342FA03F303F0A0
:100B4C000103002B0CBF01230023DBB21A462E48F5
:100B5C0000F0B5FEBB792D4A32F81330012219464C
:100B6C002B4800F0ACFEBB790133BB71BB79062B73
:100B7C00D9D9D2E02A4B1B889BB2274AA2FB03236C
:100B8C005B0B9BB2DAB2254B1A70254B1B889BB2C0
:100B9C00214AA2FB0312520B42F2107101FB02F22A
:100BAC009B1A9BB2114AA2FB03239B099BB2DAB29C
:100BBC001A4B5A70064B1B781A46184B9B5C1A46FC
:100BCC000D4B9A5C0D4B1A7000237B714DE000BFEE
:100BDC00D300002060000020001001400E00002017
:100BEC006C000020AD8BDB68C8000020D34D621078
:100BFC0070000020CC00002024000020D400002035
:100C0C00D5000020400000200008014050000020CA
:100C1C00000C0140080000205917B7D1D00000206B
:100C2C000C0000207B79454A32F81310444B1B789A
:100C3C001A467B79C3F1060342FA03F303F001036E
:100C4C00002B0CBF01230023DBB21A463D4800F0F9
:100C5C0036FE7B793C4A32F81330012219463B4868
:100C6C0000F02DFE7B7901337B717B79062BD9D972
:100C7C0053E0374B1B889BB2364AA2FB03235B0B1A
:100C8C009BB2DAB2344B1A70314B1B889BB2314A8F
:100C9C00A2FB0312520B42F2107101FB02F29B1ADF
:100CAC009BB22E4AA2FB03239B099BB2DAB22A4BBE
:100CBC005A702B4B1B781A46274B9B5C1A46294BB8
:100CCC009A5C1F4B1A7000233B7122E03B791B4A44
:100CDC0032F813101A4B1B781A463B79C3F10603F2
:100CEC0042FA03F303F00103002B0CBF0123002392
:100CFC00DBB21A46134800F0E2FD3B79124A32F897
:100D0C00133001221946114800F0D9FD3B7901330B
:100D1C003B713B79062BD9D900BF114B1B780133A2
:100D2C00DAB20F4B1A700E4B1B78012B02D90C4BFD
:100D3C0000221A7000BF0837BD4680BD400000205D
:100D4C00D40000200008014050000020000C01409D
:100D5C000A0000205917B7D1D0000020D34D6210E3
:100D6C00D30000202400002080B500AF00F0A4FACE
:100D7C0000F01CF800F0A2F800F054F8094801F05B
:100D8C00FDF9094B1B78DBB2012BFAD1FFF7A4FB61
:100D9C00FFF7D6F9FFF790FDFFF7D0FD024B0022CD
:100DAC001A70EEE7D80000202B01002080B590B01F
:100DBC0000AF07F1180328220021184601F06AFD44
:100DCC003B1D00221A605A609A60DA601A61022395
:100DDC00BB610123BB621023FB6200237B6307F121
:100DEC001803184600F09CFD0346002B01D000F0C0
:100DFC00DFF80F237B600023BB600023FB60002324
:100E0C003B6100237B613B1D0021184601F00AF871
:100E1C000346002B01D000F0CBF800BF4037BD4695
:100E2C0080BD000080B586B000AF07F1080300223A
:100E3C001A605A609A60DA603B4600221A605A6067
:100E4C001D4B4FF080421A601B4B41F63F725A60AB
:100E5C00194B00229A60184B0922DA60164B0022BB
:100E6C001A61154B00229A61134801F037F90346B9
:100E7C00002B01D000F09CF84FF48053BB6007F1BD
:100E8C00080319460C4801F0B5FA0346002B01D0B3
:100E9C0000F08EF800233B6000237B603B46194634
:100EAC00054801F08DFC0346002B01D000F080F8C2
:100EBC0000BF1837BD4680BDD800002080B588B073
:100ECC0000AF07F1100300221A605A609A60DA60D2
:100EDC00334B9B69324A43F010039361304B9B694F
:100EEC0003F01003FB60FB682D4B9B692C4A43F00D
:100EFC00040393612A4B9B6903F00403BB60BB683A
:100F0C00274B9B69264A43F008039361244B9B694A
:100F1C0003F008037B607B6800224FF4C04121483A
:100F2C0000F0CDFC012247F6FF711F4800F0C7FC12
:100F3C0001224FF6FF711D4800F0C1FC4FF4C04375
:100F4C003B6101237B610023BB610223FB6107F141
:100F5C0010031946134800F01FFB47F6FF733B6163
:100F6C0001237B610023BB610223FB6107F11003AA
:100F7C0019460D4800F010FB4FF6FF733B6101233F
:100F8C007B610023BB610223FB6107F1100319464F
:100F9C00064800F001FB00BF2037BD4680BD00BFF6
:100FAC00001002400010014000080140000C0140FC
:100FBC0080B400AF72B600BF00BFFDE780B485B04F
:100FCC0000AF154B9B69144A43F001039361124B1C
:100FDC009B6903F00103BB60BB680F4BDB690E4AD6
:100FEC0043F08053D3610C4BDB6903F080537B607F
:100FFC007B680A4B5B68FB60FB6823F0E063FB607B
:10100C00FB6843F08063FB60044AFB68536000BFDD
:10101C001437BD4680BC70470010024000000140F0
:10102C0080B584B000AF78607B681B68B3F1804FEB
:10103C0013D10C4BDB690B4A43F00103D361094B11
:10104C00DB6903F00103FB60FB68002200211C201C
:10105C0000F06BFA1C2000F084FA00BF1037BD467C
:10106C0080BD00BF0010024080B400AF00BFFDE7A0
:10107C0080B400AF00BFFDE780B400AF00BFFDE758
:10108C0080B400AF00BFFDE780B400AF00BFFDE748
:10109C0080B400AF00BFBD4680BC704780B400AFC9
:1010AC0000BFBD4680BC704780B400AF00BFBD46DA
:1010BC0080BC704780B500AF00F044F900BF80BD24
:1010CC0080B500AF024801F0A5F800BF80BD00BF9D
:1010DC00D800002080B400AF00BFBD4680BC704774
:1010EC0080B483B000AF0346FB80FB88064A1360D4
:1010FC00FB88064A1360064B4FF47A721A8000BFC5
:10110C000C37BD4680BC7047200100206C000020CD
:10111C008000002080B483B000AF0346FB80FB88C6
:10112C00064A1360FB88064A1360064B4FF47A722A
:10113C001A8000BF0C37BD4680BC704724010020CC
:10114C00700000208200002080B400AF304B1B6880
:10115C000A3B2F4A13602F4B1B680A3B2D4A136026
:10116C002D4B1B880A3B9AB22B4B1A802B4B1B889E
:10117C000A3B9AB2294B1A80274B1B88002B09D1AA
:10118C00274B1B68A3F57A73254A1360224B4FF447
:10119C007A721A80214B1B88002B09D1214B1B68BA
:1011AC00A3F57A731F4A13601C4B4FF47A721A80A2
:1011BC00174B1B68002B06DC1B4B01221A701B4BB8
:1011CC001B68134A1360164B1B68002B06DC184B6C
:1011DC0001221A70174B1B68114A1360114B1B68C4
:1011EC00002B06DC144B01221A70144B1B680D4AA1
:1011FC001360084B1B68002B06DC114B01221A7084
:10120C00104B1B68034A136000BFBD4680BC70477F
:10121C006800002074000020800000208200002064
:10122C006C000020700000202801002078000020B5
:10123C0029010020200100202A0100202401002087
:10124C002B0100207C00002080B582B000AF7860BC
:10125C007B681B68B3F1804F03D1FFF775FFFFF775
:10126C006BFA00BF0837BD4680BD0000FFF732FFA8
:10127C000B480C490C4A002302E0D458C4500433E8
:10128C00C4188C42F9D3094A094C002301E01360BD
:10129C000432A242FBD301F005FBFFF765FD70475A
:1012AC00000000208C0000203C2900088C0000204D
:1012BC0030010020FEE7000080B500AF084B1B6832
:1012CC00074A43F010031360032000F023F90F20AA
:1012DC0000F008F8FFF772FE0023184680BD00BF2F
:1012EC000020024080B582B000AF7860124B1A68C3
:1012FC00124B1B7819464FF47A73B3FBF1F3B2FB24
:10130C00F3F3184600F03BF90346002B01D0012300
:10131C000EE07B680F2B0AD8002279684FF0FF3063
:10132C0000F003F9064A7B681360002300E00123F8
:10133C0018460837BD4680BD640000208800002098
:10134C008400002080B400AF054B1B781A46054B77
:10135C001B681344034A136000BFBD4680BC704732
:10136C00880000202C01002080B400AF024B1B68C9
:10137C001846BD4680BC70472C01002080B485B057
:10138C0000AF78607B6803F00703FB600C4BDB68F5
:10139C00BB60BA684FF6FF031340BB60FB681A02D0
:1013AC00BB68134343F0BF6343F40033BB60044A90
:1013BC00BB68D36000BF1437BD4680BC704700BF0C
:1013CC0000ED00E080B400AF044BDB681B0A03F0B7
:1013DC0007031846BD4680BC704700BF00ED00E017
:1013EC0080B483B000AF0346FB7197F90730002B34
:1013FC000BDBFB7903F01F02064997F907305B09F9
:10140C00012000FA02F241F8232000BF0C37BD4640
:10141C0080BC704700E100E080B483B000AF0346AD
:10142C003960FB7197F90730002B0ADB3B68DAB2A5
:10143C000C4997F907301201D2B20B4483F8002300
:10144C000AE03B68DAB20849FB7903F00F03043B6E
:10145C001201D2B20B441A7600BF0C37BD4680BCC9
:10146C00704700BF00E100E000ED00E080B489B0FF
:10147C0000AFF860B9607A60FB6803F00703FB61AA
:10148C00FB69C3F10703042B28BF0423BB61FB6971
:10149C000433062B02D9FB69033B00E000237B617C
:1014AC004FF0FF32BB6902FA03F3DA43BB681A4010
:1014BC007B699A404FF0FF317B6901FA03F3D94302
:1014CC007B680B40134318462437BD4680BC7047DD
:1014DC0080B582B000AF78607B68013BB3F1807F50
:1014EC0001D301230FE00A4A7B68013B53600F21B3
:1014FC004FF0FF30FFF790FF054B00229A60044B32
:10150C0007221A60002318460837BD4680BD00BF6D
:10151C0010E000E080B582B000AF78607868FFF72B
:10152C002DFF00BF0837BD4680BD80B586B000AF2B
:10153C000346B9607A60FB7300237B61FFF742FFBF
:10154C0078617A68B9687869FFF790FF024697F975
:10155C000F3011461846FFF75FFF00BF1837BD4626
:10156C0080BD80B582B000AF0346FB7197F90730A0
:10157C001846FFF735FF00BF0837BD4680BD80B564
:10158C0082B000AF78607868FFF7A2FF0346184678
:10159C000837BD4680BD000080B48BB000AF7860CA
:1015AC00396000237B6200233B6261E101227B6A8C
:1015BC0002FA03F3FB613B681B68FA691340BB61D9
:1015CC00BA69FB699A4240F050813B685B68974A64
:1015DC0093425ED0954A934275D8954A934258D01F
:1015EC00934A93426FD8934A934252D0914A934272
:1015FC0069D8914A93424CD08F4A934263D88F4A10
:10160C00934246D08D4A93425DD8122B2AD8122B86
:10161C0059D801A252F823F09F1600087916000839
:10162C008B160008CD160008D3160008D316000838
:10163C00D3160008D3160008D3160008D3160008DA
:10164C00D3160008D3160008D3160008D3160008CA
:10165C00D3160008D3160008D3160008811600080C
:10166C0095160008764A934213D02CE03B68DB6851
:10167C003B6229E03B68DB6804333B6224E03B6857
:10168C00DB6808333B621FE03B68DB680C333B6272
:10169C001AE03B689B68002B02D104233B6213E0E9
:1016AC003B689B68012B05D108233B627B68FA6978
:1016BC001A6109E008233B627B68FA695A6103E00E
:1016CC0000233B6200E000BFBB69FF2B01D87B68A5
:1016DC0001E07B6804337B61BB69FF2B02D87B6A1A
:1016EC009B0002E07B6A083B9B003B617B691A68AC
:1016FC000F213B6901FA03F3DB431A40396A3B695A
:10170C0001FA03F31A437B691A603B685B6803F0C8
:10171C008053002B00F0A9804A4B9B69494A43F047
:10172C0001039361474B9B6903F00103BB60BB68EA
:10173C00454A7B6A9B08023352F82330FB607B6A74
:10174C0003F003039B000F2202FA03F3DB43FA6856
:10175C001340FB607B683D4A93420DD07B683C4A4A
:10176C00934207D07B683B4A934201D1022304E0A9
:10177C00032302E0012300E000237A6A02F0030253
:10178C0092009340FA681343FB602F497B6A9B08D5
:10179C000233FA6841F823203B685B6803F480133A
:1017AC00002B06D02C4B9A682B49BB6913438B60DA
:1017BC0006E0294B9A68BB69DB43274913408B60D1
:1017CC003B685B6803F40013002B06D0224BDA68ED
:1017DC002149BB691343CB6006E01F4BDA68BB6938
:1017EC00DB431D491340CB603B685B6803F400335B
:1017FC00002B06D0184B5A681749BB6913434B6032
:10180C0006E0154B5A68BB69DB43134913404B6028
:10181C003B685B6803F48033002B1FD00E4B1A68B7
:10182C000D49BB6913430B601FE000BF0000321071
:10183C0000003110000022100000211000001210D6
:10184C00000011100010024000000140000801408F
:10185C00000C014000100140000401400B4B1A68C1
:10186C00BB69DB43094913400B607B6A01337B6224
:10187C003B681A687B6A22FA03F3002B7FF496AE5E
:10188C0000BF00BF2C37BD4680BC70470004014030
:10189C0080B485B000AF78600B467B807B689A681B
:1018AC007B881340002B02D00123FB7301E0002343
:1018BC00FB73FB7B18461437BD4680BC704780B465
:1018CC0083B000AF78600B467B8013467B707B78CF
:1018DC00002B03D07A887B681A6103E07B881A049A
:1018EC007B681A6100BF0C37BD4680BC704780B462
:1018FC0085B000AF78600B467B807B68DB68FB6053
:10190C007A88FB6813401A04FB68D9437B880B4028
:10191C001A437B681A6100BF1437BD4680BC704700
:10192C0080B586B000AF78607B68002B01D10123B5
:10193C0072E27B681B6803F00103002B00F08780C8
:10194C00924B5B6803F00C03042B0CD08F4B5B6841
:10195C0003F00C03082B12D18C4B5B6803F480331F
:10196C00B3F5803F0BD1894B1B6803F40033002B7C
:10197C006CD07B685B68002B68D101234CE27B68E0
:10198C005B68B3F5803F06D1804B1B687F4A43F4FC
:10199C00803313602EE07B685B68002B0CD17B4B93
:1019AC001B687A4A23F480331360784B1B68774AA0
:1019BC0023F4802313601DE07B685B68B3F5A02FD4
:1019CC000CD1724B1B68714A43F4802313606F4B2C
:1019DC001B686E4A43F4803313600BE06B4B1B683F
:1019EC006A4A23F480331360684B1B68674A23F4FC
:1019FC00802313607B685B68002B13D0FFF7B4FC6B
:101A0C00386108E0FFF7B0FC02463B69D31A642B3F
:101A1C0001D9032300E25D4B1B6803F40033002B58
:101A2C00F0D014E0FFF7A0FC386108E0FFF79CFC55
:101A3C0002463B69D31A642B01D90323ECE1534BC7
:101A4C001B6803F40033002BF0D100E000BF7B686F
:101A5C001B6803F00203002B63D04C4B5B6803F054
:101A6C000C03002B0BD0494B5B6803F00C03082BC9
:101A7C001CD1464B5B6803F48033002B16D1434BCF
:101A8C001B6803F00203002B05D07B681B69012B3C
:101A9C0001D00123C0E13D4B1B6823F0F8027B68A9
:101AAC005B69DB00394913430B603AE07B681B69C7
:101ABC00002B20D0364B01221A60FFF755FC386101
:101ACC0008E0FFF751FC02463B69D31A022B01D9FF
:101ADC000323A1E12D4B1B6803F00203002BF0D074
:101AEC002A4B1B6823F0F8027B685B69DB002749F3
:101AFC0013430B6015E0264B00221A60FFF734FCF1
:101B0C00386108E0FFF730FC02463B69D31A022B20
:101B1C0001D9032380E11D4B1B6803F00203002B4A
:101B2C00F0D17B681B6803F00803002B3AD07B686C
:101B3C009B69002B19D0174B01221A60FFF714FC7C
:101B4C00386108E0FFF710FC02463B69D31A022B00
:101B5C0001D9032360E10D4B5B6A03F00203002BF8
:101B6C00F0D0012000F09CFA1CE00A4B00221A6015
:101B7C00FFF7FAFB38610FE0FFF7F6FB02463B6913
:101B8C00D31A022B08D9032346E100BF00100240F0
:101B9C000000424280044242924B5B6A03F0020313
:101BAC00002BE9D17B681B6803F00403002B00F0C9
:101BBC00A6800023FB758B4BDB6903F08053002B55
:101BCC000DD1884BDB69874A43F08053D361854B39
:101BDC00DB6903F08053BB60BB680123FB75824B50
:101BEC001B6803F48073002B18D17F4B1B687E4A53
:101BFC0043F480731360FFF7B7FB386108E0FFF71D
:101C0C00B3FB02463B69D31A642B01D9032303E1CE
:101C1C00754B1B6803F48073002BF0D07B68DB687A
:101C2C00012B06D16F4B1B6A6E4A43F00103136202
:101C3C002DE07B68DB68002B0CD16A4B1B6A694A70
:101C4C0023F001031362674B1B6A664A23F00403FB
:101C5C0013621CE07B68DB68052B0CD1614B1B6AA3
:101C6C00604A43F0040313625E4B1B6A5D4A43F007
:101C7C00010313620BE05B4B1B6A5A4A23F001030E
:101C8C001362584B1B6A574A23F0040313627B6898
:101C9C00DB68002B15D0FFF767FB38610AE0FFF714
:101CAC0063FB02463B69D31A41F28832934201D955
:101CBC000323B1E04B4B1B6A03F00203002BEED065
:101CCC0014E0FFF751FB38610AE0FFF74DFB0246C9
:101CDC003B69D31A41F28832934201D903239BE02A
:101CEC00404B1B6A03F00203002BEED1FB7D012B52
:101CFC0005D13C4BDB693B4A23F08053D3617B68B5
:101D0C00DB69002B00F08780364B5B6803F00C031B
:101D1C00082B61D07B68DB69022B46D1334B002248
:101D2C001A60FFF721FB386108E0FFF71DFB024644
:101D3C003B69D31A022B01D903236DE0294B1B6895
:101D4C0003F00073002BF0D17B681B6AB3F5803F66
:101D5C0008D1244B5B6823F400327B689B682149D3
:101D6C0013434B601F4B5B6823F474127B68196A36
:101D7C007B685B6A0B431B4913434B601B4B012273
:101D8C001A60FFF7F1FA386108E0FFF7EDFA024646
:101D9C003B69D31A022B01D903233DE0114B1B687D
:101DAC0003F00073002BF0D035E0104B00221A60CA
:101DBC00FFF7DAFA386108E0FFF7D6FA02463B691A
:101DCC00D31A022B01D9032326E0064B1B6803F020
:101DDC000073002BF0D11EE07B68DB69012B07D16F
:101DEC00012319E0001002400070004060004242E4
:101DFC000B4B5B68FB60FB6803F480327B681B6AEF
:101E0C009A4206D1FB6803F470127B685B6A9A42B3
:101E1C0001D0012300E0002318461837BD4680BDD1
:101E2C000010024080B584B000AF786039607B68E8
:101E3C00002B01D10123D0E06A4B1B6803F0070390
:101E4C003A689A4210D9674B1B6823F00702654920
:101E5C003B6813430B60634B1B6803F007033A6842
:101E6C009A4201D00123B8E07B681B6803F002039F
:101E7C00002B20D07B681B6803F00403002B05D0DB
:101E8C00594B5B68584A43F4E06353607B681B68AA
:101E9C0003F00803002B05D0534B5B68524A43F404
:101EAC0060535360504B5B6823F0F0027B689B6877
:101EBC004D4913434B607B681B6803F00103002BF7
:101ECC0040D07B685B68012B07D1474B1B6803F440
:101EDC000033002B15D101237FE07B685B68022B5C
:101EEC0007D1414B1B6803F00073002B09D1012370
:101EFC0073E03D4B1B6803F00203002B01D101235F
:101F0C006BE0394B5B6823F003027B685B683649F6
:101F1C0013434B60FFF728FAF8600AE0FFF724FA46
:101F2C000246FB68D31A41F28832934201D903234B
:101F3C0053E02D4B5B6803F00C027B685B689B00E5
:101F4C009A42EBD1274B1B6803F007033A689A427D
:101F5C0010D2244B1B6823F0070222493B68134321
:101F6C000B60204B1B6803F007033A689A4201D0C0
:101F7C00012332E07B681B6803F00403002B08D0BC
:101F8C00194B5B6823F4E0627B68DB6816491343EA
:101F9C004B607B681B6803F00803002B09D0124BC5
:101FAC005B6823F460527B681B69DB000E491343AA
:101FBC004B6000F021F802460B4B5B681B0903F0E9
:101FCC000F030A49CB5C22FA03F3094A1360094B4D
:101FDC001B681846FFF786F9002318461037BD46D4
:101FEC0080BD00BF002002400010024010290008F4
:101FFC00640000208400002080B487B000AF002370
:10200C00FB600023BB6000237B6100237B6000230B
:10201C003B611E4B5B68FB60FB6803F00C03042BFD
:10202C0002D0082B03D027E0194B3B6127E0FB685B
:10203C009B0C03F00F03174AD35C7B60FB6803F423
:10204C008033002B10D0114B5B685B0C03F0010349
:10205C00114AD35CBB607B680D4A03FB02F2BB6880
:10206C00B2FBF3F37B6104E07B680C4A02FB03F3E5
:10207C007B617B693B6102E0054B3B6100BF3B69C7
:10208C0018461C37BD4680BC704700BF001002408C
:10209C0000127A00202900083029000800093D00B0
:1020AC0080B485B000AF78600A4B1B680A4AA2FB6B
:1020BC0003235B0A7A6802FB03F3FB6000BFFB6837
:1020CC005A1EFA60002BF9D100BF00BF1437BD4671
:1020DC0080BC704764000020D34D621080B582B084
:1020EC0000AF78607B68002B01D1012341E07B6855
:1020FC0093F83D30DBB2002B06D17B68002283F8CD
:10210C003C207868FEF78CFF7B68022283F83D2028
:10211C007B681A687B6804331946104600F056FA3F
:10212C007B68012283F846207B68012283F83E20DD
:10213C007B68012283F83F207B68012283F84020D2
:10214C007B68012283F841207B68012283F84220BE
:10215C007B68012283F843207B68012283F84420AA
:10216C007B68012283F845207B68012283F83D209F
:10217C00002318460837BD4680BD000080B485B0EA
:10218C0000AF78607B6893F83D30DBB2012B01D057
:10219C00012335E07B68022283F83D207B681B68B5
:1021AC00DA687B681B6842F00102DA607B681B68A6
:1021BC00164A934209D07B681B68B3F1804F04D058
:1021CC007B681B68124A934211D17B681B689B6821
:1021DC0003F00703FB60FB68062B10D07B681B68C1
:1021EC001A687B681B6842F001021A6007E07B6882
:1021FC001B681A687B681B6842F001021A60002396
:10220C0018461437BD4680BC704700BF002C0140F7
:10221C000004004080B584B000AF78607B681B6818
:10222C00DB68FB607B681B681B69BB60BB6803F0E9
:10223C000203002B20D0FB6803F00203002B1BD001
:10224C007B681B686FF002021A617B6801221A77A7
:10225C007B681B689B6903F00303002B03D0786831
:10226C0000F098F905E0786800F08BF9786800F0D8
:10227C009AF97B6800221A77BB6803F00403002BE1
:10228C0020D0FB6803F00403002B1BD07B681B6879
:10229C006FF004021A617B6802221A777B681B6854
:1022AC009B6903F44073002B03D0786800F072F93B
:1022BC0005E0786800F065F9786800F074F97B68DF
:1022CC0000221A77BB6803F00803002B20D0FB68B0
:1022DC0003F00803002B1BD07B681B686FF008020F
:1022EC001A617B6804221A777B681B68DB6903F030
:1022FC000303002B03D0786800F04CF905E07868F4
:10230C0000F03FF9786800F04EF97B6800221A77EC
:10231C00BB6803F01003002B20D0FB6803F0100304
:10232C00002B1BD07B681B686FF010021A617B6856
:10233C0008221A777B681B68DB6903F44073002B57
:10234C0003D0786800F026F905E0786800F019F9F8
:10235C00786800F028F97B6800221A77BB6803F0D4
:10236C000103002B0CD0FB6803F00103002B07D0FA
:10237C007B681B686FF001021A617868FEF764FFD6
:10238C00BB6803F08003002B0CD0FB6803F08003C8
:10239C00002B07D07B681B686FF080021A6178688D
:1023AC0000F06FFABB6803F04003002B0CD0FB6805
:1023BC0003F04003002B07D07B681B686FF04002D2
:1023CC001A61786800F0F8F8BB6803F02003002B62
:1023DC000CD0FB6803F02003002B07D07B681B6834
:1023EC006FF020021A61786800F042FA00BF1037D3
:1023FC00BD4680BD80B584B000AF786039600023E5
:10240C00FB737B6893F83C30012B01D10223B4E0C1
:10241C007B68012283F83C207B68022283F83D20F4
:10242C007B681B689B68BB60BB6823F07703BB6051
:10243C00BB6823F47F43BB607B681B68BA689A60F7
:10244C003B681B68B3F5005F3ED0B3F5005F00F24C
:10245C008780B3F5805F00F08680B3F5805F7FD80E
:10246C00702B1AD0702B7BD8602B50D0602B77D868
:10247C00502B3CD0502B73D8402B58D0402B6FD8BE
:10248C00302B64D0302B6BD8202B60D0202B67D80E
:10249C00002B5CD0102B5AD062E07B6818683B682C
:1024AC0099683B685A683B68DB6800F06AF97B689E
:1024BC001B689B68BB60BB6843F07703BB607B68A1
:1024CC001B68BA689A604FE07B6818683B6899682B
:1024DC003B685A683B68DB6800F053F97B681B6803
:1024EC009A687B681B6842F480429A603CE07B6887
:1024FC0018683B6859683B68DB681A4600F0CAF8F4
:10250C007B681B685021184600F021F92CE07B6891
:10251C0018683B6859683B68DB681A4600F0E8F8B5
:10252C007B681B686021184600F011F91CE07B6881
:10253C0018683B6859683B68DB681A4600F0AAF8D3
:10254C007B681B684021184600F001F90CE07B68A1
:10255C001A683B681B681946104600F0F8F803E04F
:10256C000123FB7300E000BF7B68012283F83D2050
:10257C007B68002283F83C20FB7B18461037BD4655
:10258C0080BD80B483B000AF786000BF0C37BD460F
:10259C0080BC704780B483B000AF786000BF0C374C
:1025AC00BD4680BC704780B483B000AF786000BF7C
:1025BC000C37BD4680BC704780B483B000AF7860E8
:1025CC0000BF0C37BD4680BC7047000080B485B09E
:1025DC0000AF786039607B681B68FB607B682B4AB6
:1025EC00934207D07B68B3F1804F03D07B68284AB5
:1025FC00934208D1FB6823F07003FB603B685B6877
:10260C00FA681343FB607B68204A934207D07B68CF
:10261C00B3F1804F03D07B681D4A934208D1FB680D
:10262C0023F44073FB603B68DB68FA681343FB6080
:10263C00FB6823F080023B685B691343FB607B689B
:10264C00FA681A603B689A687B68DA623B681A68B9
:10265C007B689A627B680D4A934203D13B681A6986
:10266C007B681A637B6801225A617B681B6903F0E3
:10267C000103002B05D07B681B6923F001027B68EA
:10268C001A6100BF1437BD4680BC7047002C014056
:10269C000004004080B487B000AFF860B9607A6085
:1026AC00FB681B6A7B61FB681B6A23F00102FB68F9
:1026BC001A62FB689B693B613B6923F0F0033B6149
:1026CC007B681B013A6913433B617B6923F00A0366
:1026DC007B617A69BB6813437B61FB683A699A61D9
:1026EC00FB687A691A6200BF1C37BD4680BC704714
:1026FC0080B487B000AFF860B9607A60FB681B6A81
:10270C007B61FB681B6A23F01002FB681A62FB6892
:10271C009B693B613B6923F470433B617B681B0302
:10272C003A6913433B617B6923F0A0037B61BB686F
:10273C001B017A6913437B61FB683A699A61FB68F8
:10274C007A691A6200BF1C37BD4680BC704780B4E2
:10275C0085B000AF786039607B689B68FB60FB6874
:10276C0023F07003FB603A68FB68134343F00703E4
:10277C00FB607B68FA689A6000BF1437BD4680BC6A
:10278C00704780B487B000AFF860B9607A603B6086
:10279C00FB689B687B617B6923F47F437B613B68AF
:1027AC001A027B681A43BB6813437A6913437B6133
:1027BC00FB687A699A6000BF1C37BD4680BC7047C5
:1027CC0080B485B000AF786039607B6893F83C309A
:1027DC00012B01D1022341E07B68012283F83C20CC
:1027EC007B68022283F83D207B681B685B68FB607A
:1027FC007B681B689B68BB60FB6823F07003FB6005
:10280C003B681B68FA681343FB607B681B68FA68BB
:10281C005A607B681B68144A934209D07B681B681A
:10282C00B3F1804F04D07B681B68104A93420CD1E3
:10283C00BB6823F08003BB603B685B68BA681343DA
:10284C00BB607B681B68BA689A607B68012283F85E
:10285C003D207B68002283F83C2000231846143767
:10286C00BD4680BC704700BF002C014000040040F6
:10287C0080B483B000AF786000BF0C37BD4680BC1D
:10288C00704780B483B000AF786000BF0C37BD4692
:10289C0080BC704703460244934200D1704703F852
:1028AC00011BF9E770B500260C4D0D4C641BA410F0
:1028BC00A64209D100F01AF800260A4D0A4C641BF6
:1028CC00A410A64205D170BD55F8043B98470136BB
:1028DC00EEE755F8043B98470136F2E73429000837
:1028EC00342900083429000838290008F8B500BF3D
:1028FC00F8BC08BC9E467047F8B500BFF8BC08BCD5
:04290C009E4670472C
:10291000000000000000000001020304060708098F
:1029200002030405060708090A0B0C0D0E0F101010
:0429300001020000A0
:042934003101000865
:042938000D01000885
:10293C0001008813B80BD0078813B80BD00701001F
:10294C0001010100010101000101010040008000B2
:10295C00000100007E306D79335B5F707F7B00007F
:10296C0001000200040008001000200040000000DC
:10297C0000010002000400080010002000400000CC
:10298C00000200040008001000200040008000003D
:10299C000020004000127A0001000000010000003D
:1029AC000100000001000000640000006400000051
:0C29BC00E803E803100000000100000028
:040000050800127964
:00000001FF
