:020000040800F2
:1000000000280020290B00089D080008A50800080A
:10001000AD080008B5080008BD0800080000000091
:10002000000000000000000000000000C5080008FB
:10003000D108000800000000DD080008E9080008F9
:10004000710B0008710B0008710B0008710B0008A0
:10005000710B0008710B0008710B0008710B000890
:10006000710B0008710B0008710B0008710B000880
:10007000710B0008710B0008710B0008710B000870
:10008000710B0008710B0008710B0008710B000860
:10009000710B0008710B0008710B0008710B000850
:1000A000710B0008710B0008710B0008710B000840
:1000B000F5080008710B000800000000710B000833
:1000C000710B00080000000000000000710B000828
:1000D00000000000710B0008710B00080000000018
:1000E000710B0008710B0008710B00080000000084
:1000F0000000000000000000000000000000000000
:0C01000000000000000000005FF808F1A3
:10010C0010B5054C237833B9044B13B10448AFF345
:10011C0000800123237010BD680000200000000047
:10012C00B434000808B5034B1BB103490348AFF3C3
:10013C00008008BD000000006C000020B4340008F2
:10014C0080B584B000AFF860B9607A607B689AB211
:10015C004FF0FF33B968044802F09AF87B681846F0
:10016C001037BD4680BD00BFD800002080B500AF61
:10017C0000F0FAFC00F048F800F014F900F09CF8DC
:10018C0000F0E6F800F07EF8012241F67F011648F7
:10019C0000F0D6FF012243F6FF71144800F0D0FFA7
:1001AC00134801F099FC00F065F90022C8211148B0
:1001BC0000F0DAF9322200210F4800F0D5F90022C4
:1001CC004FF4C8710D4800F0CFF9012200210C4802
:1001DC0000F0CAF94FF4FA7200210A4800F0C4F991
:1001EC0000F042FAFCE700BF00080140000C01409F
:1001FC0090000020710A0008550A0008390A00080E
:10020C00ED0A00081D0A000880B590B000AF07F198
:10021C00180328220021184602F025FB3B1D002262
:10022C001A605A609A60DA601A610A23BB61012372
:10023C00BB621023FB6201233B6300237B6307F14A
:10024C001803184600F0E8FF0346002B01D000F01D
:10025C000BF90F237B600023BB600023FB600023A2
:10026C003B6100237B613B1D0021184601F056FACF
:10027C000346002B01D000F0F7F800BF4037BD4615
:10028C0080BD000080B500AF094B0A4A1A60084BCC
:10029C0003225A60064B40F6FF729A60044800F045
:1002AC0067FF0346002B01D000F0DEF800BF80BDD5
:1002BC00840000200030004080B586B000AF07F10C
:1002CC00080300221A605A609A60DA603B460022EA
:1002DC001A605A601D4B4FF080421A601B4B41F65E
:1002EC003F725A60194B00229A60184B0922DA604F
:1002FC00164B00221A61154B00229A61134801F02B
:10030C009BFB0346002B01D000F0AEF84FF480535A
:10031C00BB6007F1080319460C4801F019FD0346B0
:10032C00002B01D000F0A0F800233B6000237B6081
:10033C003B461946054801F0F1FE0346002B01D05F
:10034C0000F092F800BF1837BD4680BD9000002029
:10035C0080B500AF114B124A1A60104B4FF4E132CA
:10036C005A600E4B00229A600C4B0022DA600B4B49
:10037C0000221A61094B0C225A61084B00229A6127
:10038C00064B0022DA61054801F032FF0346002BD0
:10039C0001D000F069F800BF80BD00BFD80000207C
:1003AC000038014080B586B000AF07F10803002289
:1003BC001A605A609A60DA60284B9B69274A43F0AE
:1003CC0004039361254B9B6903F004037B607B68FA
:1003DC00224B9B69214A43F0080393611F4B9B6995
:1003EC0003F008033B603B68002241F67F011C4888
:1003FC0000F0A6FE002243F6FF711A4800F0A0FEA2
:10040C0041F67F03BB600123FB6000233B610223A9
:10041C007B6107F108031946114800F015FD802394
:10042C00BB600023FB6001233B6107F10803194605
:10043C000B4800F009FD43F6FF73BB600123FB6022
:10044C0000233B6102237B6107F108031946054831
:10045C0000F0FAFC00BF1837BD4680BD001002400A
:10046C0000080140000C014080B400AF72B600BF20
:10047C0000BFFDE780B582B000AF0023FB7106E042
:10048C00FB79184600F0B4F8FB790133FB71FB796A
:10049C00092BF5D9034B00221A7000BF0837BD4653
:1004AC0080BD00BF6002002080B582B000AF00F0BC
:1004BC00E7FA0023FB7148E0FB79294A5B011344FE
:1004CC0004331B68002B0BD0FB7925495A010A44D5
:1004DC0004321268013A22495B010B4404331A605E
:1004EC00FB791F4A5B0113441B68002B2AD0FB7954
:1004FC001B4A5B01134404331B68002B22D1FB798C
:10050C00174A5B01134410331A78FB790132D1B2CC
:10051C00134A5B01134410330A461A70FB79104AD4
:10052C005B0113440C331B68002B0BD0FA79FB795D
:10053C000B4952010A440C32126809495B010B4405
:10054C0004331A60FB790133FB71FB79092BB3D9A6
:10055C00044800F051FE00BF0837BD4680BD00BF07
:10056C00200100208400002080B487B000AFF86028
:10057C00B9607A600023FB7502E0FB7D0133FB75EB
:10058C00FB7D194A5B0113441B68002B02D0FB7DD9
:10059C00092BF2D9FB7D0A2B04D1144B01221A70C2
:1005AC000A231BE0FB7D104A5B011344FA681A60B6
:1005BC00FB7D0D4A5B0113440433BA681A60FB7D62
:1005CC00094A5B0113440C337A681A60FB7D064AB6
:1005DC005B011344103300221A70FB7D18461C3744
:1005EC00BD4680BC704700BF200100206002002087
:1005FC0080B485B000AF0346FB71FB79092B06D89C
:10060C00FB79174A5B0113441B68002B05D1154B72
:10061C0002221A700A23FB7301E00923FB73FB7996
:10062C000F4A5B01134400221A60FB790C4A5B01F0
:10063C001344043300221A60FB79094A5B0113440A
:10064C000C3300221A60FB79054A5B01134410330A
:10065C0000221A70FB7B18461437BD4680BC7047CD
:10066C00200100206002002080B582B000AF002382
:10067C00FB712BE0FB791A4A5B01134410331B7896
:10068C00002B20D0FB79164A5B0113441B6898475A
:10069C00FB79134A5B01134410331A78FB79013A46
:1006AC00D1B20F4A5B01134410330A461A70FB791E
:1006BC000B4A5B0113440C331B68002B03D1FB79F1
:1006CC001846FFF795FFFB790133FB71FB79092B7A
:1006DC00D0D900F007F800BF0837BD4680BD00BF79
:1006EC002001002080B400AF154B1A78154B1B78F5
:1006FC009A4210D0124B1A78124B1A70104B1B786E
:10070C00002B04D0104B4EF660221A6013E00E4BF7
:10071C0000221A600FE00C4B1B68002B0BD00A4B0D
:10072C001B68013B084A1360074B1B68002B02D166
:10073C00034B00221A7000BFBD4680BC704700BF3F
:10074C0060020020610200206402002080B485B0A9
:10075C0000AF154B9B69144A43F001039361124B94
:10076C009B6903F00103BB60BB680F4BDB690E4A4E
:10077C0043F08053D3610C4BDB6903F080537B60F7
:10078C007B680A4B5B68FB60FB6823F0E063FB60F3
:10079C00FB6843F08063FB60044AFB68536000BF56
:1007AC001437BD4680BC7047001002400000014069
:1007BC0080B584B000AF78607B681B68B3F1804F64
:1007CC0013D10C4BDB690B4A43F00103D361094B8A
:1007DC00DB6903F00103FB60FB68002200211C2095
:1007EC0000F0FBFA1C2000F014FB00BF1037BD46D4
:1007FC0080BD00BF0010024080B588B000AF7860AB
:10080C0007F1100300221A605A609A60DA607B6864
:10081C001B681C4A934231D11B4B9B691A4A43F407
:10082C0080439361184B9B6903F48043FB60FB6826
:10083C00154B9B69144A43F004039361124B9B695B
:10084C0003F00403BB60BB684FF400733B610223ED
:10085C007B610323FB6107F1100319460B4800F081
:10086C00F3FA4FF480633B6100237B610023BB618F
:10087C0007F110031946054800F0E6FA00BF2037CF
:10088C00BD4680BD00380140001002400008014008
:10089C0080B400AF00BFFDE780B400AF00BFFDE740
:1008AC0080B400AF00BFFDE780B400AF00BFFDE730
:1008BC0080B400AF00BFFDE780B400AF00BFBD4601
:1008CC0080BC704780B400AF00BFBD4680BC704791
:1008DC0080B400AF00BFBD4680BC704780B500AF90
:1008EC0000F088F900BF80BD80B500AF024801F070
:1008FC003FF900BF80BD00BF9000002080B586B0DE
:10090C0000AFF860B9607A6000237B610AE0AFF356
:10091C0000800146BB685A1CBA60CAB21A707B6967
:10092C0001337B617A697B689A42F0DB7B681846FD
:10093C001837BD4680BD80B483B000AF78604FF0EF
:10094C00FF3318460C37BD4680BC704780B483B06B
:10095C0000AF786039603B684FF400525A60002356
:10096C0018460C37BD4680BC704780B483B000AFCE
:10097C007860012318460C37BD4680BC704780B4A4
:10098C0085B000AFF860B9607A6000231846143760
:10099C00BD4680BC7047000080B586B000AF786063
:1009AC00144A154BD31A7B617B693B61134B1B6853
:1009BC00002B02D1114B124A1A60104B1A687B683B
:1009CC0013443A699A4207D201F09CFF03460C2269
:1009DC001A604FF0FF3309E0084B1B68FB60074BB4
:1009EC001A687B681344054A1360FB68184618376D
:1009FC00BD4680BD002800200004000068020020D5
:100A0C00D003002080B400AF00BFBD4680BC70474F
:100A1C0080B400AF044BDB68034A83F00803D36057
:100A2C0000BFBD4680BC70470008014080B400AFD9
:100A3C00044BDB68034A83F00403D36000BFBD465C
:100A4C0080BC70470008014080B400AF044BDB68E9
:100A5C00034A83F00203D36000BFBD4680BC7047DD
:100A6C000008014080B400AF044BDB68034A83F0FC
:100A7C000103D36000BFBD4680BC70470008014035
:100A8C0080B400AF124B1B68002B10DD114B1B68A0
:100A9C00013B104A13600F4B1B68002B07DC0C4BFF
:100AAC001B68643B0A4A13600A4B64221A600A4BA7
:100ABC001B680133084A1360054B1B68002B02D1DD
:100ACC00064B01221A7000BFBD4680BC704700BFA8
:100ADC007002002074020020780200206C020020BA
:100AEC0080B500AF034B1B681946034801F066FE46
:100AFC0000BF80BD78020020CC34000880B582B0E5
:100B0C0000AF78607B681B68B3F1804F01D1FFF7B1
:100B1C00CBFC00BF0837BD4680BD0000FFF772FF5D
:100B2C000B480C490C4A002302E0D458C45004333F
:100B3C00C4188C42F9D3094A094C002301E0136014
:100B4C000432A242FBD301F0E3FEFFF70FFB704728
:100B5C0000000020680000204C35000868000020D0
:100B6C00CC030020FEE7000080B500AF084B1B68EB
:100B7C00074A43F010031360032000F023F90F2001
:100B8C0000F008F8FFF7E2FD0023184680BD00BF17
:100B9C000020024080B582B000AF7860124B1A681A
:100BAC00124B1B7819464FF47A73B3FBF1F3B2FB7B
:100BBC00F3F3184600F03BF90346002B01D0012358
:100BCC000EE07B680F2B0AD8002279684FF0FF30BB
:100BDC0000F003F9064A7B681360002300E0012350
:100BEC0018460837BD4680BD0000002008000020D4
:100BFC000400002080B400AF054B1B781A46054B4F
:100C0C001B681344034A136000BFBD4680BC704789
:100C1C00080000207C02002080B400AF024B1B684F
:100C2C001846BD4680BC70477C02002080B485B05D
:100C3C0000AF78607B6803F00703FB600C4BDB684C
:100C4C00BB60BA684FF6FF031340BB60FB681A0227
:100C5C00BB68134343F0BF6343F40033BB60044AE7
:100C6C00BB68D36000BF1437BD4680BC704700BF63
:100C7C0000ED00E080B400AF044BDB681B0A03F00E
:100C8C0007031846BD4680BC704700BF00ED00E06E
:100C9C0080B483B000AF0346FB7197F90730002B8B
:100CAC000BDBFB7903F01F02064997F907305B0950
:100CBC00012000FA02F241F8232000BF0C37BD4698
:100CCC0080BC704700E100E080B483B000AF034605
:100CDC003960FB7197F90730002B0ADB3B68DAB2FD
:100CEC000C4997F907301201D2B20B4483F8002358
:100CFC000AE03B68DAB20849FB7903F00F03043BC6
:100D0C001201D2B20B441A7600BF0C37BD4680BC20
:100D1C00704700BF00E100E000ED00E080B489B056
:100D2C0000AFF860B9607A60FB6803F00703FB6101
:100D3C00FB69C3F10703042B28BF0423BB61FB69C8
:100D4C000433062B02D9FB69033B00E000237B61D3
:100D5C004FF0FF32BB6902FA03F3DA43BB681A4067
:100D6C007B699A404FF0FF317B6901FA03F3D94359
:100D7C007B680B40134318462437BD4680BC704734
:100D8C0080B582B000AF78607B68013BB3F1807FA7
:100D9C0001D301230FE00A4A7B68013B53600F210A
:100DAC004FF0FF30FFF790FF054B00229A60044B89
:100DBC0007221A60002318460837BD4680BD00BFC5
:100DCC0010E000E080B582B000AF78607868FFF783
:100DDC002DFF00BF0837BD4680BD80B586B000AF83
:100DEC000346B9607A60FB7300237B61FFF742FF17
:100DFC0078617A68B9687869FFF790FF024697F9CD
:100E0C000F3011461846FFF75FFF00BF1837BD467D
:100E1C0080BD80B582B000AF0346FB7197F90730F7
:100E2C001846FFF735FF00BF0837BD4680BD80B5BB
:100E3C0082B000AF78607868FFF7A2FF03461846CF
:100E4C000837BD4680BD000080B48BB000AF786021
:100E5C00396000237B6200233B6261E101227B6AE3
:100E6C0002FA03F3FB613B681B68FA691340BB6130
:100E7C00BA69FB699A4240F050813B685B68974ABB
:100E8C0093425ED0954A934275D8954A934258D076
:100E9C00934A93426FD8934A934252D0914A9342C9
:100EAC0069D8914A93424CD08F4A934263D88F4A67
:100EBC00934246D08D4A93425DD8122B2AD8122BDE
:100ECC0059D801A252F823F04F0F0008290F00083F
:100EDC003B0F00087D0F0008830F0008830F0008EC
:100EEC00830F0008830F0008830F0008830F00088E
:100EFC00830F0008830F0008830F0008830F00087E
:100F0C00830F0008830F0008830F0008310F0008BF
:100F1C00450F0008764A934213D02CE03B68DB68FF
:100F2C003B6229E03B68DB6804333B6224E03B68AE
:100F3C00DB6808333B621FE03B68DB680C333B62C9
:100F4C001AE03B689B68002B02D104233B6213E040
:100F5C003B689B68012B05D108233B627B68FA69CF
:100F6C001A6109E008233B627B68FA695A6103E065
:100F7C0000233B6200E000BFBB69FF2B01D87B68FC
:100F8C0001E07B6804337B61BB69FF2B02D87B6A71
:100F9C009B0002E07B6A083B9B003B617B691A6803
:100FAC000F213B6901FA03F3DB431A40396A3B69B1
:100FBC0001FA03F31A437B691A603B685B6803F020
:100FCC008053002B00F0A9804A4B9B69494A43F09F
:100FDC0001039361474B9B6903F00103BB60BB6842
:100FEC00454A7B6A9B08023352F82330FB607B6ACC
:100FFC0003F003039B000F2202FA03F3DB43FA68AE
:10100C001340FB607B683D4A93420DD07B683C4AA1
:10101C00934207D07B683B4A934201D1022304E000
:10102C00032302E0012300E000237A6A02F00302AA
:10103C0092009340FA681343FB602F497B6A9B082C
:10104C000233FA6841F823203B685B6803F4801391
:10105C00002B06D02C4B9A682B49BB6913438B6031
:10106C0006E0294B9A68BB69DB43274913408B6028
:10107C003B685B6803F40013002B06D0224BDA6844
:10108C002149BB691343CB6006E01F4BDA68BB698F
:10109C00DB431D491340CB603B685B6803F40033B2
:1010AC00002B06D0184B5A681749BB6913434B6089
:1010BC0006E0154B5A68BB69DB43134913404B6080
:1010CC003B685B6803F48033002B1FD00E4B1A680F
:1010DC000D49BB6913430B601FE000BF00003210C9
:1010EC00000031100000221000002110000012102E
:1010FC0000001110001002400000014000080140E7
:10110C00000C014000100140000401400B4B1A6818
:10111C00BB69DB43094913400B607B6A01337B627B
:10112C003B681A687B6A22FA03F3002B7FF496AEB5
:10113C0000BF00BF2C37BD4680BC70470004014087
:10114C0080B483B000AF78600B467B8013467B7015
:10115C007B78002B03D07A887B681A6103E07B884C
:10116C001A047B681A6100BF0C37BD4680BC7047FF
:10117C0080B584B000AF78607B68002B01D101236F
:10118C0036E07B681B684CF6CC421A607B681B68A7
:10119C0045F255521A607B681B687A6852685A602F
:1011AC007B681B687A6892689A60FFF735FDF86077
:1011BC0011E0FFF731FD0246FB68D31A41F23C32D5
:1011CC00934208D97B681B68DB6803F00303002B90
:1011DC0001D003230CE07B681B68DB6803F003037E
:1011EC00002BE6D17B681B684AF6AA221A60002302
:1011FC0018461037BD4680BD80B483B000AF786010
:10120C007B681B684AF6AA221A60002318460C3722
:10121C00BD4680BC7047000080B586B000AF7860DA
:10122C007B68002B01D1012372E27B681B6803F001
:10123C000103002B00F08780924B5B6803F00C03DA
:10124C00042B0CD08F4B5B6803F00C03082B12D1D2
:10125C008C4B5B6803F48033B3F5803F0BD1894B27
:10126C001B6803F40033002B6CD07B685B68002B8D
:10127C0068D101234CE27B685B68B3F5803F06D1F3
:10128C00804B1B687F4A43F4803313602EE07B68ED
:10129C005B68002B0CD17B4B1B687A4A23F48033A0
:1012AC001360784B1B68774A23F4802313601DE08E
:1012BC007B685B68B3F5A02F0CD1724B1B68714A2D
:1012CC0043F4802313606F4B1B686E4A43F48033E6
:1012DC0013600BE06B4B1B686A4A23F4803313607A
:1012EC00684B1B68674A23F4802313607B685B6838
:1012FC00002B13D0FFF790FC386108E0FFF78CFC53
:10130C0002463B69D31A642B01D9032300E25D4BDF
:10131C001B6803F40033002BF0D014E0FFF77CFCC7
:10132C00386108E0FFF778FC02463B69D31A642B5E
:10133C0001D90323ECE1534B1B6803F40033002B5E
:10134C00F0D100E000BF7B681B6803F00203002BA8
:10135C0063D04C4B5B6803F00C03002B0BD0494B58
:10136C005B6803F00C03082B1CD1464B5B6803F441
:10137C008033002B16D1434B1B6803F00203002B68
:10138C0005D07B681B69012B01D00123C0E13D4BCB
:10139C001B6823F0F8027B685B69DB003949134357
:1013AC000B603AE07B681B69002B20D0364B012286
:1013BC001A60FFF731FC386108E0FFF72DFC02469C
:1013CC003B69D31A022B01D90323A1E12D4B1B68D6
:1013DC0003F00203002BF0D02A4B1B6823F0F80219
:1013EC007B685B69DB00274913430B6015E0264BD8
:1013FC0000221A60FFF710FC386108E0FFF70CFCC4
:10140C0002463B69D31A022B01D9032380E11D4B01
:10141C001B6803F00203002BF0D17B681B6803F000
:10142C000803002B3AD07B689B69002B19D0174B13
:10143C0001221A60FFF7F0FB386108E0FFF7ECFBC4
:10144C0002463B69D31A022B01D9032360E10D4BF1
:10145C005B6A03F00203002BF0D0012000F0CEFAFF
:10146C001CE00A4B00221A60FFF7D6FB38610FE034
:10147C00FFF7D2FB02463B69D31A022B08D9032390
:10148C0046E100BF0010024000004242800442428C
:10149C00924B5B6A03F00203002BE9D17B681B685B
:1014AC0003F00403002B00F0A6800023FB758B4B8C
:1014BC00DB6903F08053002B0DD1884BDB69874A25
:1014CC0043F08053D361854BDB6903F08053BB60E1
:1014DC00BB680123FB75824B1B6803F48073002BE4
:1014EC0018D17F4B1B687E4A43F480731360FFF75F
:1014FC0093FB386108E0FFF78FFB02463B69D31A78
:10150C00642B01D9032303E1754B1B6803F480732F
:10151C00002BF0D07B68DB68012B06D16F4B1B6A6C
:10152C006E4A43F0010313622DE07B68DB68002BED
:10153C000CD16A4B1B6A694A23F001031362674B97
:10154C001B6A664A23F0040313621CE07B68DB68A9
:10155C00052B0CD1614B1B6A604A43F004031362E8
:10156C005E4B1B6A5D4A43F0010313620BE05B4B5D
:10157C001B6A5A4A23F001031362584B1B6A574AE1
:10158C0023F0040313627B68DB68002B15D0FFF794
:10159C0043FB38610AE0FFF73FFB02463B69D31A75
:1015AC0041F28832934201D90323B1E04B4B1B6AC1
:1015BC0003F00203002BEED014E0FFF72DFB386193
:1015CC000AE0FFF729FB02463B69D31A41F2883245
:1015DC00934201D903239BE0404B1B6A03F00203A7
:1015EC00002BEED1FB7D012B05D13C4BDB693B4A3B
:1015FC0023F08053D3617B68DB69002B00F087807C
:10160C00364B5B6803F00C03082B61D07B68DB69FD
:10161C00022B46D1334B00221A60FFF7FDFA3861DA
:10162C0008E0FFF7F9FA02463B69D31A022B01D9FD
:10163C0003236DE0294B1B6803F00073002BF0D1E2
:10164C007B681B6AB3F5803F08D1244B5B6823F49D
:10165C0000327B689B68214913434B601F4B5B68CE
:10166C0023F474127B68196A7B685B6A0B431B4911
:10167C0013434B601B4B01221A60FFF7CDFA386104
:10168C0008E0FFF7C9FA02463B69D31A022B01D9CD
:10169C0003233DE0114B1B6803F00073002BF0D0CB
:1016AC0035E0104B00221A60FFF7B6FA386108E0FB
:1016BC00FFF7B2FA02463B69D31A022B01D9032376
:1016CC0026E0064B1B6803F00073002BF0D11EE0E4
:1016DC007B68DB69012B07D1012319E00010024064
:1016EC0000700040600042420B4B5B68FB60FB6883
:1016FC0003F480327B681B6A9A4206D1FB6803F4C0
:10170C0070127B685B6A9A4201D0012300E00023CF
:10171C0018461837BD4680BD0010024080B584B015
:10172C0000AF786039607B68002B01D10123D0E0D9
:10173C006A4B1B6803F007033A689A4210D9674B4F
:10174C001B6823F0070265493B6813430B60634B2E
:10175C001B6803F007033A689A4201D00123B8E0F2
:10176C007B681B6803F00203002B20D07B681B688E
:10177C0003F00403002B05D0594B5B68584A43F423
:10178C00E06353607B681B6803F00803002B05D0F3
:10179C00534B5B68524A43F460535360504B5B6845
:1017AC0023F0F0027B689B684D4913434B607B68C8
:1017BC001B6803F00103002B40D07B685B68012B96
:1017CC0007D1474B1B6803F40033002B15D10123C1
:1017DC007FE07B685B68022B07D1414B1B6803F0F1
:1017EC000073002B09D1012373E03D4B1B6803F000
:1017FC000203002B01D101236BE0394B5B6823F012
:10180C0003027B685B68364913434B60FFF704FAAD
:10181C00F8600AE0FFF700FA0246FB68D31A41F2BF
:10182C008832934201D9032353E02D4B5B6803F0BC
:10183C000C027B685B689B009A42EBD1274B1B68C0
:10184C0003F007033A689A4210D2244B1B6823F02A
:10185C00070222493B6813430B60204B1B6803F0C3
:10186C0007033A689A4201D0012332E07B681B6877
:10187C0003F00403002B08D0194B5B6823F4E062DF
:10188C007B68DB68164913434B607B681B6803F06D
:10189C000803002B09D0124B5B6823F460527B6861
:1018AC001B69DB000E4913434B6000F021F8024624
:1018BC000B4B5B681B0903F00F030A49CB5C22FA44
:1018CC0003F3094A1360094B1B681846FFF762F9CA
:1018DC00002318461037BD4680BD00BF00200240D3
:1018EC0000100240E4340008000000200400002036
:1018FC0080B487B000AF0023FB600023BB600023E3
:10190C007B6100237B6000233B611E4B5B68FB60AB
:10191C00FB6803F00C03042B02D0082B03D027E048
:10192C00194B3B6127E0FB689B0C03F00F03174A34
:10193C00D35C7B60FB6803F48033002B10D0114B1D
:10194C005B685B0C03F00103114AD35CBB607B68E2
:10195C000D4A03FB02F2BB68B2FBF3F37B6104E0BC
:10196C007B680C4A02FB03F37B617B693B6102E001
:10197C00054B3B6100BF3B6918461C37BD4680BC1C
:10198C00704700BF0010024000127A00FC340008BF
:10199C000C35000800093D0080B400AF024B1B68F9
:1019AC001846BD4680BC70470000002080B500AFD3
:1019BC00FFF7F2FF0246054B5B681B0A03F00703B7
:1019CC000349CB5C22FA03F3184680BD0010024099
:1019DC00F434000880B500AFFFF7DEFF0246054B7C
:1019EC005B68DB0A03F007030349CB5C22FA03F3C1
:1019FC00184680BD00100240F434000880B485B055
:101A0C0000AF78600A4B1B680A4AA2FB03235B0AEF
:101A1C007A6802FB03F3FB6000BFFB685A1EFA6096
:101A2C00002BF9D100BF00BF1437BD4680BC7047F6
:101A3C0000000020D34D621080B582B000AF7860FA
:101A4C007B68002B01D1012341E07B6893F83D308A
:101A5C00DBB2002B06D17B68002283F83C2078682F
:101A6C00FEF7A6FE7B68022283F83D207B681A688D
:101A7C007B6804331946104600F056FA7B68012245
:101A8C0083F846207B68012283F83E207B68012284
:101A9C0083F83F207B68012283F840207B68012279
:101AAC0083F841207B68012283F842207B68012265
:101ABC0083F843207B68012283F844207B68012251
:101ACC0083F845207B68012283F83D2000231846CB
:101ADC000837BD4680BD000080B485B000AF78608B
:101AEC007B6893F83D30DBB2012B01D0012335E04C
:101AFC007B68022283F83D207B681B68DA687B6870
:101B0C001B6842F00102DA607B681B68164A93423C
:101B1C0009D07B681B68B3F1804F04D07B681B68CD
:101B2C00124A934211D17B681B689B6803F0070330
:101B3C00FB60FB68062B10D07B681B681A687B68FF
:101B4C001B6842F001021A6007E07B681B681A6888
:101B5C007B681B6842F001021A6000231846143798
:101B6C00BD4680BC704700BF002C01400004004003
:101B7C0080B584B000AF78607B681B68DB68FB6065
:101B8C007B681B681B69BB60BB6803F00203002BFE
:101B9C0020D0FB6803F00203002B1BD07B681B6872
:101BAC006FF002021A617B6801221A777B681B684E
:101BBC009B6903F00303002B03D0786800F098F9BD
:101BCC0005E0786800F08BF9786800F09AF97B688A
:101BDC0000221A77BB6803F00403002B20D0FB68AB
:101BEC0003F00403002B1BD07B681B686FF004020E
:101BFC001A617B6802221A777B681B689B6903F465
:101C0C004073002B03D0786800F072F905E0786817
:101C1C0000F065F9786800F074F97B6800221A7797
:101C2C00BB6803F00803002B20D0FB6803F008030B
:101C3C00002B1BD07B681B686FF008021A617B6855
:101C4C0004221A777B681B68DB6903F00303002B03
:101C5C0003D0786800F04CF905E0786800F03FF9A3
:101C6C00786800F04EF97B6800221A77BB6803F0A5
:101C7C001003002B20D0FB6803F01003002B1BD0AB
:101C8C007B681B686FF010021A617B6808221A7758
:101C9C007B681B68DB6903F44073002B03D0786806
:101CAC0000F026F905E0786800F019F9786800F082
:101CBC0028F97B6800221A77BB6803F00103002B1C
:101CCC000CD0FB6803F00103002B07D07B681B686A
:101CDC006FF001021A617868FEF710FFBB6803F021
:101CEC008003002B0CD0FB6803F08003002B07D083
:101CFC007B681B686FF080021A61786800F06FFADD
:101D0C00BB6803F04003002B0CD0FB6803F04003CE
:101D1C00002B07D07B681B686FF040021A61786853
:101D2C0000F0F8F8BB6803F02003002B0CD0FB6824
:101D3C0003F02003002B07D07B681B686FF0200298
:101D4C001A61786800F042FA00BF1037BD4680BDBA
:101D5C0080B584B000AF786039600023FB737B687A
:101D6C0093F83C30012B01D10223B4E07B680122B3
:101D7C0083F83C207B68022283F83D207B681B683B
:101D8C009B68BB60BB6823F07703BB60BB6823F424
:101D9C007F43BB607B681B68BA689A603B681B68B2
:101DAC00B3F5005F3ED0B3F5005F00F28780B3F56A
:101DBC00805F00F08680B3F5805F7FD8702B1AD0DF
:101DCC00702B7BD8602B50D0602B77D8502B3CD00D
:101DDC00502B73D8402B58D0402B6FD8302B64D05D
:101DEC00302B6BD8202B60D0202B67D8002B5CD0ED
:101DFC00102B5AD062E07B6818683B6899683B6886
:101E0C005A683B68DB6800F06AF97B681B689B6862
:101E1C00BB60BB6843F07703BB607B681B68BA6828
:101E2C009A604FE07B6818683B6899683B685A6811
:101E3C003B68DB6800F053F97B681B689A687B6829
:101E4C001B6842F480429A603CE07B6818683B68EF
:101E5C0059683B68DB681A4600F0CAF87B681B6857
:101E6C005021184600F021F92CE07B6818683B687B
:101E7C0059683B68DB681A4600F0E8F87B681B6819
:101E8C006021184600F011F91CE07B6818683B686B
:101E9C0059683B68DB681A4600F0AAF87B681B6837
:101EAC004021184600F001F90CE07B681A683B6889
:101EBC001B681946104600F0F8F803E00123FB7389
:101ECC0000E000BF7B68012283F83D207B68002284
:101EDC0083F83C20FB7B18461037BD4680BD80B490
:101EEC0083B000AF786000BF0C37BD4680BC704734
:101EFC0080B483B000AF786000BF0C37BD4680BCA7
:101F0C00704780B483B000AF786000BF0C37BD461B
:101F1C0080BC704780B483B000AF786000BF0C37D2
:101F2C00BD4680BC7047000080B485B000AF7860BF
:101F3C0039607B681B68FB607B682B4A934207D037
:101F4C007B68B3F1804F03D07B68284A934208D159
:101F5C00FB6823F07003FB603B685B68FA68134313
:101F6C00FB607B68204A934207D07B68B3F1804FBB
:101F7C0003D07B681D4A934208D1FB6823F440735D
:101F8C00FB603B68DB68FA681343FB60FB6823F07B
:101F9C0080023B685B691343FB607B68FA681A60DC
:101FAC003B689A687B68DA623B681A687B689A625D
:101FBC007B680D4A934203D13B681A697B681A63AC
:101FCC007B6801225A617B681B6903F00103002BBB
:101FDC0005D07B681B6923F001027B681A6100BF86
:101FEC001437BD4680BC7047002C014000040040F3
:101FFC0080B487B000AFF860B9607A60FB681B6A88
:10200C007B61FB681B6A23F00102FB681A62FB68A8
:10201C009B693B613B6923F0F0033B617B681B01CF
:10202C003A6913433B617B6923F00A037B617A694C
:10203C00BB6813437B61FB683A699A61FB687A69F8
:10204C001A6200BF1C37BD4680BC704780B487B095
:10205C0000AFF860B9607A60FB681B6A7B61FB6853
:10206C001B6A23F01002FB681A62FB689B693B61D8
:10207C003B6923F470433B617B681B033A69134350
:10208C003B617B6923F0A0037B61BB681B017A6910
:10209C0013437B61FB683A699A61FB687A691A623F
:1020AC0000BF1C37BD4680BC704780B485B000AF04
:1020BC00786039607B689B68FB60FB6823F0700379
:1020CC00FB603A68FB68134343F00703FB607B68D3
:1020DC00FA689A6000BF1437BD4680BC704780B464
:1020EC0087B000AFF860B9607A603B60FB689B68B2
:1020FC007B617B6923F47F437B613B681A027B68BD
:10210C001A43BB6813437A6913437B61FB687A6992
:10211C009A6000BF1C37BD4680BC704780B485B048
:10212C0000AF786039607B6893F83C30012B01D1AB
:10213C00022341E07B68012283F83C207B68022269
:10214C0083F83D207B681B685B68FB607B681B68C1
:10215C009B68BB60FB6823F07003FB603B681B68EB
:10216C00FA681343FB607B681B68FA685A607B68EB
:10217C001B68144A934209D07B681B68B3F1804FEB
:10218C0004D07B681B68104A93420CD1BB6823F0C7
:10219C008003BB603B685B68BA681343BB607B68B9
:1021AC001B68BA689A607B68012283F83D207B68C3
:1021BC00002283F83C20002318461437BD4680BC0F
:1021CC00704700BF002C01400004004080B483B075
:1021DC0000AF786000BF0C37BD4680BC704780B440
:1021EC0083B000AF786000BF0C37BD4680BC704731
:1021FC0080B582B000AF78607B68002B01D10123E1
:10220C0042E07B6893F84130DBB2002B06D17B684F
:10221C00002283F840207868FEF7EEFA7B682422CF
:10222C0083F841207B681B68DA687B681B6822F4A2
:10223C000052DA60786800F071F97B681B681A69E3
:10224C007B681B6822F490421A617B681B685A6990
:10225C007B681B6822F02A025A617B681B68DA686B
:10226C007B681B6842F40052DA607B6800225A6477
:10227C007B68202283F841207B68202283F842204F
:10228C007B6800225A63002318460837BD4680BD80
:10229C0080B58AB002AFF860B9603B601346FB8032
:1022AC0000237B61FB6893F84130DBB2202B75D1A6
:1022BC00BB68002B02D0FB88002B01D101236EE000
:1022CC00FB6800225A64FB68212283F84120FEF748
:1022DC00A3FC7861FB68FA889A84FB68FA88DA8434
:1022EC00FB689B68B3F5805F08D1FB681B69002B0A
:1022FC0004D10023FB61BB68BB6103E0BB68FB61DD
:10230C000023BB612EE03B6800937B690022802197
:10231C00F86800F048F80346002B05D0FB68202233
:10232C0083F8412003233AE0FB69002B0BD1BB69F6
:10233C001B881A46FB681B68C2F308025A60BB690B
:10234C000233BB6107E0FB691A78FB681B685A60B3
:10235C00FB690133FB61FB68DB8C9BB2013B9AB2DE
:10236C00FB68DA84FB68DB8C9BB2002BCBD13B681F
:10237C0000937B6900224021F86800F014F80346B2
:10238C00002B05D0FB68202283F84120032306E0B4
:10239C00FB68202283F84120002300E0022318462A
:1023AC002037BD4680BD80B586B000AFF860B960FF
:1023BC003B601346FB713BE03B6AB3F1FF3F37D008
:1023CC00FEF72AFC02463B68D31A3A6A9A4202D3B9
:1023DC003B6A002B01D103233AE0FB681B68DB68E6
:1023EC0003F00403002B23D0BB68802B20D0BB68E8
:1023FC00402B1DD0FB681B681B6803F00803082BDF
:10240C0016D100237B61FB681B681B687B61FB6832
:10241C001B685B687B617B69F86800F01DF8FB68E2
:10242C0008225A64FB68002283F8402001230FE045
:10243C00FB681B681A68BB681340BA689A420CBFE9
:10244C0001230023DBB21A46FB799A42B4D0002355
:10245C0018461837BD4680BD80B495B000AF786083
:10246C007B681B680C337B637B6B53E8003F3B63DF
:10247C003B6B23F49073FB647B681B680C33FA6C26
:10248C003A64FB63F96B3A6C41E80023BB63BB6BAA
:10249C00002BE5D17B681B6814333B623B6A53E825
:1024AC00003FFB61FB6923F00103BB647B681B6885
:1024BC001433BA6CFA62BB62B96AFA6A41E8002357
:1024CC007B627B6A002BE5D17B681B6B012B19D1DE
:1024DC007B681B680C33FB60FB6853E8003FBB60F8
:1024EC00BB6823F010037B647B681B680C337A6C2D
:1024FC00BA617B617969BA6941E800233B613B6948
:10250C00002BE5D17B68202283F842207B680022D7
:10251C001A6300BF5437BD4680BC704780B584B089
:10252C0000AF78607B681B681B6923F440517B68A3
:10253C00DA687B681B680A431A617B689A687B6857
:10254C001B691A437B685B691343BB607B681B6820
:10255C00DB6823F4B05323F00C037A681268B96873
:10256C000B43D3607B681B685B6923F440717B6809
:10257C009A697B681B680A435A617B681B682C4A02
:10258C00934203D1FFF726FAF86002E0FFF70EFA48
:10259C00F860FA6813469B0013449A001A447B684F
:1025AC005B689B00B2FBF3F3224AA2FB03235B099B
:1025BC001901FA6813469B0013449A001A447B686D
:1025CC005B689B00B2FBF3F21A4BA3FB02035B09A3
:1025DC00642000FB03F3D31A1B013233154AA2FB10
:1025EC0003235B0903F0F0031944FA6813469B00BC
:1025FC0013449A001A447B685B689B00B2FBF3F2AD
:10260C000C4BA3FB02035B09642000FB03F3D31AFE
:10261C001B013233074AA2FB03235B0903F00F02B1
:10262C007B681B680A449A6000BF1037BD4680BDAA
:10263C00003801401F85EB51002310B50446C0E95A
:10264C000033C0E90433836081814366C2818361B6
:10265C00194608225C3000F006F90D4B24626362C7
:10266C000C4BA3620C4BE3620C4B23630C4B9C4254
:10267C0006D003F16802944202D0D0339C4205D1BB
:10268C0004F15800BDE8104000F066B910BD00BF61
:10269C00ED2700080F280008472800086B280008C1
:1026AC0080020020024A0349034800F069B800BFC9
:1026BC000C000020F93100081C00002041680C4B74
:1026CC0010B59942044601D000F090FDA168094B69
:1026DC00994202D0204600F089FDE168064B9942F0
:1026EC0004D02046BDE8104000F080BD10BD00BFF6
:1026FC0080020020E80200205003002010B50B4B94
:10270C000B4C0C4A20461A6004210022FFF794FF60
:10271C0004F1680001220921FFF78EFF04F1D000BB
:10272C000222BDE810401221FFF786BFB80300203B
:10273C0080020020B1260008014800F00EB900BF4D
:10274C00C1030020014800F009B900BFC1030020FB
:10275C0010B50446FFF7F0FF236A1BB1BDE810402B
:10276C00FFF7F0BF044B2362044B1B68002BF5D121
:10277C00FFF7C4FFF2E700BFC9260008B80300202A
:10278C002DE9F8430746884614460026D4E90195FE
:10279C00B9F1010905D52468002CF7D13046BDE804
:1027AC00F883AB89012B07D9B5F90E30013303D06F
:1027BC0029463846C04706436835E9E70FB407B5E4
:1027CC00064904AB086853F8042B8168019300F0A8
:1027DC00E5F903B05DF804EB04B070471800002075
:1027EC0010B50C46B1F90E1000F068F80028ABBF1C
:1027FC00636DA3891B1823F48053ACBF6365A3815D
:10280C0010BD2DE9F0411F468B890546DB050C46B2
:10281C00164605D502230022B1F90E1000F03CF843
:10282C00A389324623F48053A38128463B46B4F94E
:10283C000E10BDE8F04100F053B810B50C46B1F9DC
:10284C000E1000F029F8431CA38915BF606523F412
:10285C00805343F48053A38118BFA38110BDB1F9F9
:10286C000E1000F009B803460244934200D17047A1
:10287C0003F8011BF9E7000038B50023054D0446A9
:10288C0008462B60FEF757F8431C02D12B6803B1A6
:10289C00236038BDBC03002038B5044608461146F9
:1028AC000022054D2A601A46FEF769F8431C02D136
:1028BC002B6803B1236038BDBC03002038B5044637
:1028CC00084611460022054D2A601A46FEF716F8F6
:1028DC00431C02D12B6803B1236038BDBC0300201C
:1028EC0038B50446084611460022054D2A601A46A2
:1028FC00FDF726FC431C02D12B6803B1236038BDC5
:10290C00BC030020014B1868704700BF1800002062
:10291C0070B500260C4D0D4C641BA410A64209D1B9
:10292C0000F0C2FD00260A4D0A4C641BA410A642FE
:10293C0005D170BD55F8043B98470136EEE755F8C4
:10294C00043B98470136F2E744350008443500084B
:10295C004435000848350008704770477047000040
:10296C0038B50546002940D051F8043C0C1F002B0B
:10297C00B8BFE41800F0DEF81C4A136833B9636082
:10298C0014602846BDE8384000F0DAB8A34208D9F4
:10299C00206821188B4201BF19685B6809182160F7
:1029AC00EDE71A465B680BB1A342FAD911685018CF
:1029BC00A0420BD120680144501883421160E0D131
:1029CC0018685B68084410605360DAE702D90C237E
:1029DC002B60D6E7206821188B4201BF19685B6811
:1029EC000918216063605460CBE738BDC803002030
:1029FC0070B50F4E0C463168054611B900F0B2FCAB
:102A0C0030602146284600F0ADFC431C03D14FF04A
:102A1C00FF34204670BDC41C24F00304A042F8D03F
:102A2C00211A284600F09EFC0130F2D1EFE700BFDE
:102A3C00C40300202DE9F843CD1C25F0030508350F
:102A4C000C2D38BF0C25002D064601DBA94204D9FC
:102A5C000C2333600020BDE8F883DFF8D48000F04D
:102A6C0069F8D8F800301C4644BB29463046FFF7BD
:102A7C00BFFF431C044658D1D8F800402746002F0E
:102A8C0043D1002C4BD023683946304604EB030964
:102A9C0000F068FC814542D1216830466D1A294608
:102AAC00FFF7A6FF01303AD023682B442360D8F8F7
:102ABC0000305A6862BBC8F800700FE02268521BE5
:102ACC0020D40B2A17D96119A342256018BF59606D
:102ADC00636808BFC8F8001062514B60304600F0C4
:102AEC002FF804F10B00231D20F00700C21A1CBFA5
:102AFC001B1AA350AFE76268A3420CBFC8F80020B2
:102B0C005A60EBE723466468AEE73C467F68B6E75D
:102B1C001A465B68A342FBD100235360DEE70C230B
:102B2C003046336000F00CF894E70560D6E700BF40
:102B3C00C80300200148FFF710BF00BFC0030020EE
:102B4C000148FFF70BBF00BFC0030020936810B40F
:102B5C00013B002B936007DA9469A34201DB0A293D
:102B6C0002D110BC00F06ABB1368581C10601970BD
:102B7C00084610BC7047F8B506460F461446D518E3
:102B8C00AC4201D1002007E03A46304614F8011B54
:102B9C00FFF7DCFF431CF3D1F8BD00002DE9F04F2B
:102BAC000D461446984606469DB018B1036A0BB9FB
:102BBC00FFF7CEFD6B6ED90705D4AB899A0502D40D
:102BCC00A86DFFF7CAFEAB891B0701D52B699BB912
:102BDC002946304600F070FB70B16B6EDC0704D5F3
:102BEC004FF0FF301DB0BDE8F08FAB899805F7D4DE
:102BFC00A86DFFF7B3FEF3E70023099320238DF8AC
:102C0C00293030234FF00109CDF80C80DFF8A88172
:102C1C008DF82A3023469A4613F8012B0AB1252A3F
:102C2C00F9D1BAEB040B0BD05B4622462946304651
:102C3C00FFF7A1FF013000F0A780099A5A440992CE
:102C4C009AF80030002B00F09F8000234FF0FF32E9
:102C5C00CDE905230AF1010A049307938DF853304B
:102C6C001A935446052214F8011B534800F08AFBB2
:102C7C00049AD8B9D10644BF20238DF853301307DA
:102C8C0044BF2B238DF853309AF800302A2B15D0E3
:102C9C00544600204FF00A0C079A214611F8013BCC
:102CAC00303B092B4BD9B0B1079214E0A0EB0803D1
:102CBC0009FA03F31343A2460493D2E7039B191DAD
:102CCC001B680391002BBBBF5B4242F002020793CF
:102CDC000793B8BF049223782E2B0AD163782A2B42
:102CEC0032D1039B02341A1D1B68039243EAE3732F
:102CFC000593DFF8C8A003225046217800F042FB70
:102D0C0038B14022049BA0EB0A00824013430134EB
:102D1C00049314F8011B062229488DF8281000F0A2
:102D2C0031FB00283FD0274B1BBB039B073323F001
:102D3C00070308330393099B3B4409936AE70C464A
:102D4C0001200CFB0232A8E700234FF00A0C1946B5
:102D5C0001340593204610F8012B303A092A03D987
:102D6C00002BC6D00591C4E7044601230CFB0121BE
:102D7C00F0E703AB00932A463046134B04A9AFF39C
:102D8C0000800746781CD6D16B6ED90705D4AB8969
:102D9C009A0502D4A86DFFF7E1FDAB895B063FF500
:102DAC001FAF09981EE703AB00932A463046064B2B
:102DBC0004A900F07DF8E4E70E350008143500088E
:102DCC001835000800000000832B00082DE9F0479F
:102DDC00164698468A680B6907469342B8BF134655
:102DEC00336091F843200C46DDF820900AB1013392
:102DFC0033602368990642BF336802333360256819
:102E0C0015F0060506D104F1190AE36832689B1A1D
:102E1C00AB422BDC94F843302268003B18BF0123F3
:102E2C00920630D44146384604F14302C84701307B
:102E3C0023D02368226903F00603042B14BF00255A
:102E4C0033684FF0000608BFE56804F11A0408BFA8
:102E5C00ED1A54F8123C08BF25EAE5759342C4BF3D
:102E6C009B1AED18B5421AD1002008E001235246F6
:102E7C0041463846C847013003D14FF0FF30BDE81A
:102E8C00F0870135C1E73020E11881F843005A1C66
:102E9C0094F845102244023382F84310C2E7012310
:102EAC00224641463846C8470130E6D00136D9E7BC
:102EBC002DE9FF470F7E9146782F80460C469A46A7
:102ECC000C9E01F1430207D8622F0AD8002F00F0A4
:102EDC00D180582F00F0B88004F1420684F842707B
:102EEC003AE0A7F16303152BF6D801A151F823F0B2
:102EFC00552F0008692F0008E52E0008E52E000864
:102F0C00E52E0008E52E0008692F0008E52E0008C4
:102F1C00E52E0008E52E0008E52E000867300008B5
:102F2C00932F000821300008E52E0008E52E00083C
:102F3C0089300008E52E0008932F0008E52E0008C4
:102F4C00E52E00082930000833681A1D1B68326012
:102F5C0004F1420684F8423001239CE03368206877
:102F6C00191D3160060601D51D6803E04506FBD529
:102F7C00B3F90050002D03DA2D236D4284F8433051
:102F8C000A23584811E021683368080653F8045B9B
:102F9C0002D4490648BFADB26F2F336014BF0A2369
:102FAC0008235048002184F843106668002EA66060
:102FBC0005DB21682E4321F0040121604BD016461D
:102FCC00B5FBF3F103FB1157C75D06F8017D2F46E6
:102FDC00BB420D46F4D9082B0BD12368DF0708D56B
:102FEC00236961689942DEBF302306F8013C06F183
:102FFC00FF36921B22614B4621464046CDF800A07D
:10300C0003AAFFF7E3FE01304AD14FF0FF3004B0C2
:10301C00BDE8F087236843F020032360782732480B
:10302C0084F84570236831681F0651F8045B02D49C
:10303C005F0648BFADB23160D90744BF43F02003EF
:10304C0023601DB11023ADE72648E9E7236823F080
:10305C0020032360F6E71646BDE733682568181D84
:10306C00616930602E061B6801D5196002E06806A4
:10307C00FBD51980002316462361BCE73368002179
:10308C001A1D32601E686268304600F07BF908B188
:10309C00801B606063682361002384F84330AAE7D7
:1030AC003246494640462369D0470130ADD02368AB
:1030BC009B0713D4E068039B9842B8BF1846A6E759
:1030CC000123324649464046D04701309DD0013558
:1030DC00E36803995B1AAB42F2DCEBE7002504F1E1
:1030EC001906F5E71F35000830350008B1F90C203A
:1030FC00F8B5160705460C4654D44B68002B02DC79
:10310C000B6C002B48DDE66A002E45D0002312F430
:10311C0080522F68216A2B6030D0626DA3895907C9
:10312C0005D56368D21A636B0BB1236CD21A0023DA
:10313C002846E66A216AB047431CA38906D1296850
:10314C001D292BD8284ACA40D60727D500226260F1
:10315C002269D904226004D5421C01D12B6803B921
:10316C006065616B2F60B9B104F14403994202D0E0
:10317C002846FFF7F5FB002363630DE00123284687
:10318C00B0470246501CC9D12B68002BC6D01D2B52
:10319C0001D0162B1DD12F60002021E043F04003FD
:1031AC001BB21AE00F69002FF6D0930718BF00234B
:1031BC000E6808BF4B69F61B0F608B60002EEBDDB1
:1031CC0033463A462846216AD4F828C0E0470028FE
:1031DC0007DCB4F90C3043F040034FF0FF30A3810F
:1031EC00F8BD0744361AE9E70100402038B50B69F1
:1031FC0005460C4613B90025284638BD18B1036A9C
:10320C000BB9FFF7A5FAB4F90C30002BF3D0626EB2
:10321C00D00704D4990502D4A06DFFF79EFB284675
:10322C002146FFF763FF636E0546DA07E4D4A389F2
:10323C009B05E1D4A06DFFF791FBDDE7F8B50E46D9
:10324C001446054618B1036A0BB9FFF781FAA36956
:10325C00A360A3891A0701D5236943B921462846DF
:10326C0000F02AF818B14FF0FF373846F8BD236844
:10327C002269F6B2981A63693746834205DC214607
:10328C002846FFF7B3FF0028EDD1A368013BA360EC
:10329C0023685A1C22601E706269431C9A4204D037
:1032AC00A389DB07E1D50A2EDFD121462846FFF79B
:1032BC009DFF0028D9D0D6E738B5294B05461868AC
:1032CC000C4618B1036A0BB9FFF742FAB4F90C308B
:1032DC00190722D4DA0607D409222A6043F04003E6
:1032EC004FF0FF30A38133E0580712D5616B41B129
:1032FC0004F14403994202D02846FFF731FB002326
:10330C006363A38923F02403A381002363602369EF
:10331C002360A38943F00803A38123694BB9A389D4
:10332C0003F42073B3F5007F03D02146284600F048
:10333C005CF8B4F90C3013F001020AD00022A26040
:10334C0062695242A261226942B913F08000C5D170
:10335C0038BD990758BF6269A260F4E70020F7E70F
:10336C001800002038B50023054D044608462B6094
:10337C00FDF712FB431C02D12B6803B1236038BD4F
:10338C00BC030020034610B5C9B202449342184650
:10339C0001D1002003E0047801338C42F6D110BD3A
:1033AC0070B50C46B1F90E10154600291E4696B0A4
:1033BC000CDAA389002113F0800F14BF40234FF4C3
:1033CC008063002031602B6016B070BD6A4600F03F
:1033DC0049F80028EDDB019901F47041A1F5005387
:1033EC00594259414FF48063EBE78B89F7B59D0740
:1033FC0006460C4607D504F14703236023610123DD
:10340C00636103B0F0BD6A4601ABFFF7C9FF009FD3
:10341C00054639463046FFF70DFB48B9B4F90C3078
:10342C009A05EED423F0030343F00203A381E2E7F1
:10343C00A389C4E9040743F08003A381019B2060A6
:10344C005BB13046B4F90E1000F01EF828B1A38918
:10345C0023F0030343F00103A381A3891D43A5813A
:10346C00CFE7000038B50023064D04460846114648
:10347C002B60FDF76BFA431C02D12B6803B1236060
:10348C0038BD00BFBC03002038B50023054D0446F1
:10349C0008462B60FDF769FA431C02D12B6803B177
:1034AC00236038BDBC030020F8B500BFF8BC08BCD5
:1034BC009E467047F8B500BFF8BC08BC9E467047E6
:1034CC0043757272656E742074696D653A2025645B
:1034DC0030206D730D0A0000000000000000000099
:1034EC00010203040607080900000000010203049E
:1034FC0002030405060708090A0B0C0D0E0F101029
:10350C000102232D302B2000686C4C00656667454A
:10351C00464700303132333435363738394142433F
:10352C0044454600303132333435363738396162F0
:08353C006364656600000000F5
:043544003101000849
:043548000D01000869
:10354C0000127A00100000000100000000000000D2
:10355C0003000000800200201C000020000000007E
:10356C0080020020E8020020500300200000000030
:10357C00000000000000000000000000000000003F
:10358C00000000000000000000000000000000002F
:10359C00000000000000000000000000000000001F
:0835AC00000000000000000017
:0400000508000B29BB
:00000001FF
